{
    "contractName": "Harvest",
    "abi": [
        {
            "constant": true,
            "inputs": [],
            "name": "getHarvesters",
            "outputs": [
                {
                    "name": "",
                    "type": "address[16]"
                }
            ],
            "payable": false,
            "stateMutability": "view",
            "type": "function"
        },
        {
            "constant": false,
            "inputs": [
                {
                    "name": "ressourceId",
                    "type": "uint256"
                }
            ],
            "name": "harvest",
            "outputs": [
                {
                    "name": "",
                    "type": "uint256"
                }
            ],
            "payable": false,
            "stateMutability": "nonpayable",
            "type": "function"
        },
        {
            "constant": true,
            "inputs": [
                {
                    "name": "",
                    "type": "uint256"
                }
            ],
            "name": "harvesters",
            "outputs": [
                {
                    "name": "",
                    "type": "address"
                }
            ],
            "payable": false,
            "stateMutability": "view",
            "type": "function"
        }
    ],
    "bytecode": "608060405234801561001057600080fd5b50610246806100206000396000f3006080604052600436106100565763ffffffff7c0100000000000000000000000000000000000000000000000000000000600035041663b2dd53eb811461005b578063ddc63262146100a9578063ea02cea4146100d3575b600080fd5b34801561006757600080fd5b50610070610114565b604051808261020080838360005b8381101561009657818101518382015260200161007e565b5050505090500191505060405180910390f35b3480156100b557600080fd5b506100c1600435610167565b60408051918252519081900360200190f35b3480156100df57600080fd5b506100eb6004356101d0565b6040805173ffffffffffffffffffffffffffffffffffffffff9092168252519081900360200190f35b61011c6101fa565b604080516102008101918290529060009060109082845b815473ffffffffffffffffffffffffffffffffffffffff168152600190910190602001808311610133575050505050905090565b600080821015801561017a5750600f8211155b151561018557600080fd5b336000836010811061019357fe5b01805473ffffffffffffffffffffffffffffffffffffffff191673ffffffffffffffffffffffffffffffffffffffff929092169190911790555090565b600081601081106101dd57fe5b015473ffffffffffffffffffffffffffffffffffffffff16905081565b6102006040519081016040528060109060208202803883395091929150505600a165627a7a723058203a8554e3634e156ff7cce37c9430f452ff609327812be4b8e350a1daa280f3b80029",
    "sourcePath": "c:/Users/Rahma John/Documents/dev/CraftingChain-/contracts/Harvest.sol",
    "compiler": {
        "name": "solc",
        "version": "0.4.26+commit.4563c3fc"
    },
    "functionHashes": {
        "getHarvesters()": "b2dd53eb",
        "harvest(uint256)": "ddc63262",
        "harvesters(uint256)": "ea02cea4"
    },
    "gasEstimates": {
        "creation": {
            "codeDepositCost": "116400",
            "executionCost": "165",
            "totalCost": "116565"
        },
        "external": {
            "getHarvesters()": "infinite",
            "harvest(uint256)": "20556",
            "harvesters(uint256)": "483"
        }
    }
}