{
    "contractName": "Sample",
    "abi": [
        {
            "constant": true,
            "inputs": [
                {
                    "name": "",
                    "type": "address"
                }
            ],
            "name": "balances",
            "outputs": [
                {
                    "name": "",
                    "type": "uint256"
                }
            ],
            "payable": false,
            "stateMutability": "view",
            "type": "function"
        },
        {
            "constant": true,
            "inputs": [
                {
                    "name": "",
                    "type": "uint256"
                }
            ],
            "name": "resourceStats",
            "outputs": [
                {
                    "name": "quality",
                    "type": "uint256"
                },
                {
                    "name": "coldResistance",
                    "type": "uint256"
                },
                {
                    "name": "shockResistance",
                    "type": "uint256"
                },
                {
                    "name": "name",
                    "type": "string"
                }
            ],
            "payable": false,
            "stateMutability": "view",
            "type": "function"
        },
        {
            "constant": true,
            "inputs": [],
            "name": "getHarvesters",
            "outputs": [
                {
                    "name": "",
                    "type": "address[16]"
                }
            ],
            "payable": false,
            "stateMutability": "view",
            "type": "function"
        },
        {
            "constant": false,
            "inputs": [
                {
                    "name": "receiver",
                    "type": "address"
                },
                {
                    "name": "amount",
                    "type": "uint256"
                }
            ],
            "name": "send",
            "outputs": [],
            "payable": false,
            "stateMutability": "nonpayable",
            "type": "function"
        },
        {
            "constant": false,
            "inputs": [
                {
                    "name": "ressourceId",
                    "type": "uint256"
                }
            ],
            "name": "harvest",
            "outputs": [
                {
                    "name": "",
                    "type": "uint256"
                }
            ],
            "payable": false,
            "stateMutability": "nonpayable",
            "type": "function"
        },
        {
            "constant": true,
            "inputs": [
                {
                    "name": "",
                    "type": "uint256"
                }
            ],
            "name": "harvesters",
            "outputs": [
                {
                    "name": "",
                    "type": "address"
                }
            ],
            "payable": false,
            "stateMutability": "view",
            "type": "function"
        },
        {
            "anonymous": false,
            "inputs": [
                {
                    "indexed": false,
                    "name": "from",
                    "type": "address"
                },
                {
                    "indexed": false,
                    "name": "to",
                    "type": "address"
                },
                {
                    "indexed": false,
                    "name": "amount",
                    "type": "uint256"
                }
            ],
            "name": "Sent",
            "type": "event"
        }
    ],
    "bytecode": "608060405234801561001057600080fd5b506104f6806100206000396000f3006080604052600436106100775763ffffffff7c010000000000000000000000000000000000000000000000000000000060003504166327e235e3811461007c5780632a7cbbe3146100af578063b2dd53eb14610154578063d0679d34146101a2578063ddc63262146101c8578063ea02cea4146101e0575b600080fd5b34801561008857600080fd5b5061009d600160a060020a0360043516610214565b60408051918252519081900360200190f35b3480156100bb57600080fd5b506100c7600435610226565b6040518085815260200184815260200183815260200180602001828103825283818151815260200191508051906020019080838360005b838110156101165781810151838201526020016100fe565b50505050905090810190601f1680156101435780820380516001836020036101000a031916815260200191505b509550505050505060405180910390f35b34801561016057600080fd5b506101696102fc565b604051808261020080838360005b8381101561018f578181015183820152602001610177565b5050505090500191505060405180910390f35b3480156101ae57600080fd5b506101c6600160a060020a0360043516602435610342565b005b3480156101d457600080fd5b5061009d600435610431565b3480156101ec57600080fd5b506101f860043561048d565b60408051600160a060020a039092168252519081900360200190f35b60106020526000908152604090205481565b601180548290811061023457fe5b9060005260206000209060040201600091509050806000015490806001015490806002015490806003018054600181600116156101000203166002900480601f0160208091040260200160405190810160405280929190818152602001828054600181600116156101000203166002900480156102f25780601f106102c7576101008083540402835291602001916102f2565b820191906000526020600020905b8154815290600101906020018083116102d557829003601f168201915b5050505050905084565b6103046104aa565b604080516102008101918290529060009060109082845b8154600160a060020a0316815260019091019060200180831161031b575050505050905090565b336000908152601060205260409020548111156103c057604080517f08c379a000000000000000000000000000000000000000000000000000000000815260206004820152601560248201527f496e73756666696369656e742062616c616e63652e0000000000000000000000604482015290519081900360640190fd5b33600081815260106020908152604080832080548690039055600160a060020a03861680845292819020805486019055805193845290830191909152818101839052517f3990db2d31862302a685e8086b5755072a6e2b5b780af1ee81ece35ee3cd33459181900360600190a15050565b60008082101580156104445750600f8211155b151561044f57600080fd5b336000836010811061045d57fe5b01805473ffffffffffffffffffffffffffffffffffffffff1916600160a060020a03929092169190911790555090565b6000816010811061049a57fe5b0154600160a060020a0316905081565b6102006040519081016040528060109060208202803883395091929150505600a165627a7a723058206d2879cb9ba839cf20e7f75ba0b412df526489b93b264c83a949a204de03e5820029",
    "sourcePath": "c:/Users/Rahma John/Documents/dev/CraftingChain-/contracts/Harvest.sol",
    "compiler": {
        "name": "solc",
        "version": "0.4.26+commit.4563c3fc"
    },
    "functionHashes": {
        "balances(address)": "27e235e3",
        "getHarvesters()": "b2dd53eb",
        "harvest(uint256)": "ddc63262",
        "harvesters(uint256)": "ea02cea4",
        "resourceStats(uint256)": "2a7cbbe3",
        "send(address,uint256)": "d0679d34"
    },
    "gasEstimates": {
        "creation": {
            "codeDepositCost": "254000",
            "executionCost": "294",
            "totalCost": "254294"
        },
        "external": {
            "balances(address)": "531",
            "getHarvesters()": "infinite",
            "harvest(uint256)": "20691",
            "harvesters(uint256)": "687",
            "resourceStats(uint256)": "infinite",
            "send(address,uint256)": "42837"
        }
    }
}