{
  "contractName": "Dungeon",
  "abi": [
    {
      "constant": true,
      "inputs": [],
      "name": "name",
      "outputs": [
        {
          "name": "",
          "type": "string"
        }
      ],
      "payable": false,
      "stateMutability": "view",
      "type": "function"
    },
    {
      "constant": true,
      "inputs": [],
      "name": "INITIAL_SUPPLY",
      "outputs": [
        {
          "name": "",
          "type": "uint256"
        }
      ],
      "payable": false,
      "stateMutability": "view",
      "type": "function"
    },
    {
      "constant": true,
      "inputs": [],
      "name": "decimals",
      "outputs": [
        {
          "name": "",
          "type": "uint8"
        }
      ],
      "payable": false,
      "stateMutability": "view",
      "type": "function"
    },
    {
      "constant": true,
      "inputs": [],
      "name": "symbol",
      "outputs": [
        {
          "name": "",
          "type": "string"
        }
      ],
      "payable": false,
      "stateMutability": "view",
      "type": "function"
    }
  ],
  "bytecode": "0x60606040526040805190810160405280600781526020017f44756e67656f6e000000000000000000000000000000000000000000000000008152506000908051906020019061004f9291906100cd565b506040805190810160405280600281526020017f44470000000000000000000000000000000000000000000000000000000000008152506001908051906020019061009b9291906100cd565b5060028060006101000a81548160ff021916908360ff160217905550612ee060035534156100c857600080fd5b610172565b828054600181600116156101000203166002900490600052602060002090601f016020900481019282601f1061010e57805160ff191683800117855561013c565b8280016001018555821561013c579182015b8281111561013b578251825591602001919060010190610120565b5b509050610149919061014d565b5090565b61016f91905b8082111561016b576000816000905550600101610153565b5090565b90565b61035c806101816000396000f300606060405260043610610062576000357c0100000000000000000000000000000000000000000000000000000000900463ffffffff16806306fdde03146100675780632ff2e9dc146100f5578063313ce5671461011e57806395d89b411461014d575b600080fd5b341561007257600080fd5b61007a6101db565b6040518080602001828103825283818151815260200191508051906020019080838360005b838110156100ba57808201518184015260208101905061009f565b50505050905090810190601f1680156100e75780820380516001836020036101000a031916815260200191505b509250505060405180910390f35b341561010057600080fd5b610108610279565b6040518082815260200191505060405180910390f35b341561012957600080fd5b61013161027f565b604051808260ff1660ff16815260200191505060405180910390f35b341561015857600080fd5b610160610292565b6040518080602001828103825283818151815260200191508051906020019080838360005b838110156101a0578082015181840152602081019050610185565b50505050905090810190601f1680156101cd5780820380516001836020036101000a031916815260200191505b509250505060405180910390f35b60008054600181600116156101000203166002900480601f0160208091040260200160405190810160405280929190818152602001828054600181600116156101000203166002900480156102715780601f1061024657610100808354040283529160200191610271565b820191906000526020600020905b81548152906001019060200180831161025457829003601f168201915b505050505081565b60035481565b600260009054906101000a900460ff1681565b60018054600181600116156101000203166002900480601f0160208091040260200160405190810160405280929190818152602001828054600181600116156101000203166002900480156103285780601f106102fd57610100808354040283529160200191610328565b820191906000526020600020905b81548152906001019060200180831161030b57829003601f168201915b5050505050815600a165627a7a72305820a25afe4ee9e847f5fcfb670dda9817079dab31ba065003cd292b9fc74c42b8ee0029",
  "source": "pragma solidity ^0.4.17;\n\ncontract Dungeon {\nstring public name = 'Dungeon';\nstring public symbol = 'DG';\nuint8 public decimals = 2;\nuint public INITIAL_SUPPLY = 12000;\n\n\n\n}\n",
  "sourcePath": "/Users/rahma/anvil-cli/truffle/contracts/Dungeon.sol",
  "compiler": {
    "name": "solc",
    "version": "0.4.18+commit.9cf6e910.Emscripten.clang"
  },
  "schemaVersion": "1.0.1",
  "updatedAt": "2018-04-08T17:01:13.418Z"
}