{
  "contractName": "CoreRefined",
  "abi": [
    {
      "anonymous": false,
      "inputs": [
        {
          "indexed": false,
          "internalType": "uint256",
          "name": "resourceId",
          "type": "uint256"
        },
        {
          "indexed": false,
          "internalType": "string",
          "name": "name",
          "type": "string"
        },
        {
          "indexed": false,
          "internalType": "uint256",
          "name": "quality",
          "type": "uint256"
        }
      ],
      "name": "NewResource",
      "type": "event"
    },
    {
      "anonymous": false,
      "inputs": [
        {
          "indexed": true,
          "internalType": "address",
          "name": "previousOwner",
          "type": "address"
        },
        {
          "indexed": true,
          "internalType": "address",
          "name": "newOwner",
          "type": "address"
        }
      ],
      "name": "OwnershipTransferred",
      "type": "event"
    },
    {
      "constant": false,
      "inputs": [
        {
          "internalType": "string",
          "name": "_name",
          "type": "string"
        }
      ],
      "name": "createResourceStack",
      "outputs": [],
      "payable": false,
      "stateMutability": "nonpayable",
      "type": "function"
    },
    {
      "constant": true,
      "inputs": [],
      "name": "owner",
      "outputs": [
        {
          "internalType": "address",
          "name": "",
          "type": "address"
        }
      ],
      "payable": false,
      "stateMutability": "view",
      "type": "function"
    },
    {
      "constant": true,
      "inputs": [
        {
          "internalType": "uint256",
          "name": "",
          "type": "uint256"
        }
      ],
      "name": "resourceToOwner",
      "outputs": [
        {
          "internalType": "address",
          "name": "",
          "type": "address"
        }
      ],
      "payable": false,
      "stateMutability": "view",
      "type": "function"
    },
    {
      "constant": true,
      "inputs": [
        {
          "internalType": "uint256",
          "name": "",
          "type": "uint256"
        }
      ],
      "name": "resources",
      "outputs": [
        {
          "internalType": "string",
          "name": "name",
          "type": "string"
        },
        {
          "internalType": "uint256",
          "name": "quality",
          "type": "uint256"
        },
        {
          "internalType": "uint32",
          "name": "rarity",
          "type": "uint32"
        },
        {
          "internalType": "uint256",
          "name": "cooldownTime",
          "type": "uint256"
        },
        {
          "internalType": "uint16",
          "name": "stockGain",
          "type": "uint16"
        },
        {
          "internalType": "uint16",
          "name": "stockLoss",
          "type": "uint16"
        },
        {
          "internalType": "uint32",
          "name": "readyTime",
          "type": "uint32"
        },
        {
          "internalType": "uint256",
          "name": "extractionTime",
          "type": "uint256"
        },
        {
          "internalType": "uint256",
          "name": "extractionId",
          "type": "uint256"
        },
        {
          "internalType": "uint256",
          "name": "magnetiteId",
          "type": "uint256"
        },
        {
          "internalType": "uint256",
          "name": "hematiteId",
          "type": "uint256"
        },
        {
          "internalType": "uint256",
          "name": "class",
          "type": "uint256"
        },
        {
          "internalType": "uint256",
          "name": "qualityUnits",
          "type": "uint256"
        }
      ],
      "payable": false,
      "stateMutability": "view",
      "type": "function"
    },
    {
      "constant": false,
      "inputs": [
        {
          "internalType": "address",
          "name": "newOwner",
          "type": "address"
        }
      ],
      "name": "transferOwnership",
      "outputs": [],
      "payable": false,
      "stateMutability": "nonpayable",
      "type": "function"
    },
    {
      "constant": true,
      "inputs": [
        {
          "internalType": "uint256",
          "name": "_id",
          "type": "uint256"
        }
      ],
      "name": "getResourcesStats",
      "outputs": [
        {
          "internalType": "bool",
          "name": "isRefiningInProcess",
          "type": "bool"
        },
        {
          "internalType": "bool",
          "name": "isReady",
          "type": "bool"
        },
        {
          "internalType": "uint256",
          "name": "cooldownTime",
          "type": "uint256"
        },
        {
          "internalType": "uint256",
          "name": "extractionTime",
          "type": "uint256"
        },
        {
          "internalType": "uint256",
          "name": "extractionId",
          "type": "uint256"
        },
        {
          "internalType": "uint256",
          "name": "magnetiteId",
          "type": "uint256"
        },
        {
          "internalType": "uint256",
          "name": "hematiteId",
          "type": "uint256"
        },
        {
          "internalType": "uint256",
          "name": "class",
          "type": "uint256"
        }
      ],
      "payable": false,
      "stateMutability": "view",
      "type": "function"
    }
  ],
  "bytecode": "0x6080604052601060015560015460025562015180600355336000806101000a81548173ffffffffffffffffffffffffffffffffffffffff021916908373ffffffffffffffffffffffffffffffffffffffff160217905550610c22806100656000396000f3fe608060405234801561001057600080fd5b50600436106100625760003560e01c8063244d6daa146100675780638da5cb5b1461018a5780639b0c52f8146101d4578063cfad4b911461024f578063dd275e4e1461030a578063f2fde38b14610378575b600080fd5b6100936004803603602081101561007d57600080fd5b81019080803590602001909291905050506103bc565b60405180806020018e81526020018d63ffffffff1663ffffffff1681526020018c81526020018b61ffff1661ffff1681526020018a61ffff1661ffff1681526020018963ffffffff1663ffffffff16815260200188815260200187815260200186815260200185815260200184815260200183815260200182810382528f818151815260200191508051906020019080838360005b83811015610143578082015181840152602081019050610128565b50505050905090810190601f1680156101705780820380516001836020036101000a031916815260200191505b509e50505050505050505050505050505060405180910390f35b610192610503565b604051808273ffffffffffffffffffffffffffffffffffffffff1673ffffffffffffffffffffffffffffffffffffffff16815260200191505060405180910390f35b610200600480360360208110156101ea57600080fd5b8101908080359060200190929190505050610528565b6040518089151515158152602001881515151581526020018781526020018681526020018581526020018481526020018381526020018281526020019850505050505050505060405180910390f35b6103086004803603602081101561026557600080fd5b810190808035906020019064010000000081111561028257600080fd5b82018360208201111561029457600080fd5b803590602001918460018302840111640100000000831117156102b657600080fd5b91908080601f016020809104026020016040519081016040528093929190818152602001838380828437600081840152601f19601f82011690508083019250505050505050919291929050505061059e565b005b6103366004803603602081101561032057600080fd5b8101908080359060200190929190505050610614565b604051808273ffffffffffffffffffffffffffffffffffffffff1673ffffffffffffffffffffffffffffffffffffffff16815260200191505060405180910390f35b6103ba6004803603602081101561038e57600080fd5b81019080803573ffffffffffffffffffffffffffffffffffffffff169060200190929190505050610647565b005b600681815481106103c957fe5b90600052602060002090600b0201600091509050806000018054600181600116156101000203166002900480601f0160208091040260200160405190810160405280929190818152602001828054600181600116156101000203166002900480156104755780601f1061044a57610100808354040283529160200191610475565b820191906000526020600020905b81548152906001019060200180831161045857829003601f168201915b5050505050908060010154908060020160009054906101000a900463ffffffff16908060030154908060040160009054906101000a900461ffff16908060040160029054906101000a900461ffff16908060040160049054906101000a900463ffffffff169080600501549080600601549080600701549080600801549080600901549080600a015490508d565b6000809054906101000a900473ffffffffffffffffffffffffffffffffffffffff1681565b600080600080600080600080600060068a8154811061054357fe5b90600052602060002090600b0201905060008160010154141598504381600301541115975080600301549650806005015495508060060154945080600701549350806008015492508060090154915050919395975091939597565b6000600560003373ffffffffffffffffffffffffffffffffffffffff1673ffffffffffffffffffffffffffffffffffffffff16815260200190815260200160002054146105ea57600080fd5b60006105f582610798565b90506064818161060157fe5b06810390506106108282610840565b5050565b60046020528060005260406000206000915054906101000a900473ffffffffffffffffffffffffffffffffffffffff1681565b6000809054906101000a900473ffffffffffffffffffffffffffffffffffffffff1673ffffffffffffffffffffffffffffffffffffffff163373ffffffffffffffffffffffffffffffffffffffff16146106a057600080fd5b600073ffffffffffffffffffffffffffffffffffffffff168173ffffffffffffffffffffffffffffffffffffffff1614156106da57600080fd5b8073ffffffffffffffffffffffffffffffffffffffff166000809054906101000a900473ffffffffffffffffffffffffffffffffffffffff1673ffffffffffffffffffffffffffffffffffffffff167f8be0079c531659141344cd1fd0a4f28419497f9722a3daafe3b4186f6b6457e060405160405180910390a3806000806101000a81548173ffffffffffffffffffffffffffffffffffffffff021916908373ffffffffffffffffffffffffffffffffffffffff16021790555050565b600080826040516020018080602001828103825283818151815260200191508051906020019080838360005b838110156107df5780820151818401526020810190506107c4565b50505050905090810190601f16801561080c5780820380516001836020036101000a031916815260200191505b50925050506040516020818303038152906040528051906020012060001c9050600254818161083757fe5b06915050919050565b600060016006604051806101a00160405280868152602001858152602001600163ffffffff16815260200160035442018152602001600061ffff168152602001600061ffff168152602001600063ffffffff168152602001600081526020016000815260200160008152602001600081526020016000815260200160108152509080600181540180825580915050906001820390600052602060002090600b0201600090919290919091506000820151816000019080519060200190610907929190610b48565b506020820151816001015560408201518160020160006101000a81548163ffffffff021916908363ffffffff1602179055506060820151816003015560808201518160040160006101000a81548161ffff021916908361ffff16021790555060a08201518160040160026101000a81548161ffff021916908361ffff16021790555060c08201518160040160046101000a81548163ffffffff021916908363ffffffff16021790555060e08201518160050155610100820151816006015561012082015181600701556101408201518160080155610160820151816009015561018082015181600a01555050019050336004600083815260200190815260200160002060006101000a81548173ffffffffffffffffffffffffffffffffffffffff021916908373ffffffffffffffffffffffffffffffffffffffff160217905550600560003373ffffffffffffffffffffffffffffffffffffffff1673ffffffffffffffffffffffffffffffffffffffff168152602001908152602001600020600081548092919060010191905055507f02d5215bb71349eb338f5113a0f6362972d5ccb5a88ab2e3b3971b993118fdc98184846040518084815260200180602001838152602001828103825284818151815260200191508051906020019080838360005b83811015610b07578082015181840152602081019050610aec565b50505050905090810190601f168015610b345780820380516001836020036101000a031916815260200191505b5094505050505060405180910390a1505050565b828054600181600116156101000203166002900490600052602060002090601f016020900481019282601f10610b8957805160ff1916838001178555610bb7565b82800160010185558215610bb7579182015b82811115610bb6578251825591602001919060010190610b9b565b5b509050610bc49190610bc8565b5090565b610bea91905b80821115610be6576000816000905550600101610bce565b5090565b9056fea265627a7a723158208913bb3cb2894b81a1888f86b1e8d97efffb9497824c6946cbba66d94411495464736f6c63430005100032",
  "source": "// solium-disable linebreak-style\r\npragma solidity >=0.4.21 <0.6.6;\r\n\r\n\r\nimport \"../node_modules/@openzeppelin/contracts/token/ERC721/ERC721.sol\";\r\nimport \"../node_modules/@openzeppelin/contracts/math/SafeMath.sol\";\r\n\r\n\r\n\r\n\r\n\r\n\r\n\r\n\r\n\r\n\r\n/**\r\n * @title Ownable\r\n * @dev The Ownable contract has an owner address, and provides basic authorization control\r\n * functions, this simplifies the implementation of \"user permissions\".\r\n */\r\ncontract Ownable {\r\n  address  public owner;\r\n\r\n  event OwnershipTransferred(address indexed previousOwner, address indexed newOwner);\r\n\r\n  /**\r\n   * @dev The Ownable constructor sets the original `owner` of the contract to the sender\r\n   * account.\r\n   */\r\n  constructor () public {\r\n    owner  = msg.sender;\r\n  }\r\n\r\n\r\n  modifier onlyOwner() {\r\n    require(msg.sender == owner);\r\n    _;\r\n  }\r\n\r\n\r\n  /**\r\n   * @dev Allows the current owner to transfer control of the contract to a newOwner.\r\n   * @param newOwner The address to transfer ownership to.\r\n   */\r\n  function transferOwnership(address newOwner) public onlyOwner {\r\n    require(newOwner != address(0));\r\n    emit OwnershipTransferred(owner, newOwner);\r\n    owner = newOwner;\r\n  }\r\n\r\n}\r\n\r\n\r\n\r\n contract Sample is Ownable  {\r\n\r\nevent NewResource (uint resourceId, string name , uint quality);\r\n\r\nuint qualityUnits = 16;\r\nuint qualityModulo = qualityUnits;\r\nuint cooldownTime = 1 days;\r\n\r\n\r\n\r\n\r\nstruct Resource {\r\n    string name;\r\n    uint quality;\r\n    uint32 rarity;\r\n    uint256 cooldownTime;\r\n    uint16 stockGain;\r\n    uint16 stockLoss;\r\n    uint32 readyTime;\r\n    uint256 extractionTime;\r\n    uint256 extractionId;\r\n    uint256 magnetiteId;\r\n    uint256 hematiteId;\r\n    uint256 class;\r\n    //uint256 sediments;\r\n    uint qualityUnits;\r\n\r\n    }\r\n\r\n\r\n\r\n//mapping address and apply stocks\r\n    mapping (uint => address) public resourceToOwner;\r\n    mapping (address => uint) ownerResourceGain;\r\n    Resource[] public resources;\r\n    //mapping(uint256 => Resource) resources[];\r\n\r\n\r\n/// @dev function to crack the resource stacks\r\nfunction _createResource (string memory _name , uint _quality) internal {\r\n    uint id = resources.push(Resource(_name,_quality ,1 , uint256( now + cooldownTime), 0 , 0, 0,\r\n    0, 0, 0, 0, 0, 16) )+1;\r\n    resourceToOwner[id] = msg.sender;\r\n    ownerResourceGain[msg.sender]++;\r\n    emit NewResource(id, _name , _quality);\r\n    }\r\n\r\n    //function to generate rand stats for resources\r\n    function _generateRandomQuality(string memory _str ) private view returns (uint) {\r\n        uint rand = uint(keccak256(abi.encode(_str)));\r\n        return rand % qualityModulo;\r\n    }\r\n\r\n    //function to generate the resource stacks\r\n\r\n    function createResourceStack(string memory _name) public {\r\n    require(ownerResourceGain[msg.sender] ==0);\r\n    uint randomQuality = _generateRandomQuality(_name);\r\n    randomQuality = randomQuality - randomQuality % 100;\r\n    _createResource(_name, randomQuality);\r\n        \r\n\r\n\r\n\r\n        \r\n    }\r\n\r\n\r\n}\r\n\r\n\r\n\r\n\r\ncontract CoreRefined is Sample {\r\n\r\n    \r\n   \r\n    //address ckAddress = 0xe5F977686C4857f370F919858B1F720FA8e9EDe6\r\n    //RefinOnterface Newcontract = RefinOnterface(ckAddress);\r\n\r\n\r\n\r\n    function getResourcesStats(uint256 _id)\r\n        external\r\n        view\r\n        returns (\r\n        bool isRefiningInProcess,\r\n        bool isReady,\r\n        uint256 cooldownTime,\r\n        //uint256 nextActionAt,\r\n        uint256 extractionTime,\r\n        uint256 extractionId,\r\n        uint256 magnetiteId,\r\n        uint256 hematiteId,\r\n        uint256 class\r\n        //uint256 sediments\r\n    ) \r\n    \r\n    \r\n    {\r\n        \r\n        Resource storage stats = resources[_id];\r\n        isRefiningInProcess = (stats.quality != 0);\r\n        isReady = (stats.cooldownTime <= block.number);\r\n        cooldownTime = uint256(stats.cooldownTime);\r\n        extractionTime = uint256(stats.extractionTime);\r\n        extractionId = uint256(stats.extractionId);\r\n        magnetiteId = uint256(stats.magnetiteId);\r\n        hematiteId = uint256(stats.hematiteId);\r\n        class = uint256(stats.class);\r\n        //sediments = stats.sediments;\r\n    }\r\n\r\n}\r\n\r\n\r\n\r\n\r\n/// @title RefiningInterface for resource modification called refining\r\n/// @dev Refining function inside for improving stats of resources.\r\ncontract RefiningInterface is Sample {\r\n    function refining(uint256 _id) external view returns (\r\n        bool isRefiningInProcess,\r\n        bool isReady,\r\n        uint256 cooldownTime,\r\n        uint256 nextActionsAt,\r\n        uint256 extractionTime,\r\n        uint256 extractionId,\r\n        uint256 magnetiteId,\r\n        uint256 hematiteId,\r\n        uint256 class\r\n        //uint256 sediments\r\n    );\r\n}\r\ncontract ResourceRefined is Sample , CoreRefined {\r\n    ResourceRefined CoreRefinedContract;\r\n\r\n    modifier onlyOwnerOf(uint _resourceId) {\r\n        require(msg.sender == resourceToOwner[_resourceId]);\r\n        _;\r\n    }\r\n\r\n\r\n\r\n    function SetAnotherContractAddress (address _address) external onlyOwner {\r\n        CoreRefinedContract\r\n = ResourceRefined(_address);\r\n    }\r\n\r\n    function triggerCooldown (Resource storage _resource ) internal {\r\n        _resource.readyTime = uint32(now+cooldownTime);\r\n\r\n    }\r\n\r\n    function _isReady ( Resource storage _resource ) internal view returns (bool) {\r\n    return (_resource.readyTime <= now);\r\n    }\r\n\r\n\r\n        function refinedAndMultiply( uint _resourceId, uint _targetQuality, string memory _types) internal onlyOwnerOf(_resourceId) {\r\n        Resource storage myResource = resources[_resourceId];\r\n        require(_isReady(myResource));\r\n        _targetQuality % qualityModulo;\r\n        uint newQuality = (myResource.quality + _targetQuality) / 2;\r\n        if(keccak256(abi.encode((_types))) == keccak256(abi.encode(\"Resources\"))) {\r\n            newQuality = newQuality - newQuality % 100 + 99;\r\n    }\r\n    _createResource(\"NoName\", newQuality);\r\n    triggerCooldown(myResource);\r\n    }\r\n\r\n\r\n    function refineOnInterface(uint256 _resourceId, uint256 _idResources ) public {\r\n    uint256 materialUsed;\r\n    (,,,,,,,materialUsed) = CoreRefinedContract.getResourcesStats(_idResources);\r\n    refinedAndMultiply(_resourceId,materialUsed,\"Resources\");\r\n\r\n    \r\n    }\r\n\r\n\r\n\r\n\r\n\r\n}\r\n\r\n\r\n\r\n\r\n\r\n\r\n\r\ncontract  ResourceHelper is ResourceRefined {\r\n    //cost ether for rarityUp fee\r\nuint rarityForFee = 0.0000001 ether;\r\n\r\n    //modify rarity !=not LEVEL\r\n    modifier aboveCostLevel (uint _rarity ,uint _resourceId){\r\n        require(resources[_resourceId].rarity >= _rarity);\r\n        _;\r\n    }\r\n\r\n\r\n    //function to withdraw FIX ISSUE\r\n   modifier onlyOwner() {\r\n    require(msg.sender != owner);\r\n    _;\r\n  }\r\n\r\n    //rarityfee for resources improvements\r\n    function setRarityFee(uint _fee) external onlyOwner {\r\n        rarityForFee = _fee;\r\n    }\r\n\r\n    //Rarity improvement function\r\n    /// @dev this function is set by using RefinedResource.sol contract in order to gain better resources\r\n\r\n    function rarityUp(uint _resourceId) external payable {\r\n        require(msg.value == rarityForFee);\r\n        resources[_resourceId].rarity++;\r\n        }\r\n\r\n        //change the name of resources\r\n\r\n    function changeName(uint _resourceId, string calldata   _Newname) external aboveCostLevel(2, _resourceId) onlyOwnerOf (_resourceId){\r\n        resources[_resourceId].name = _Newname;\r\n        \r\n    }\r\n\r\n    //change the qualityUnits\r\n    function changeQualityUnits(uint _resourceId, uint _newQualityUnits) external aboveCostLevel(2, _resourceId) onlyOwnerOf (_resourceId) {\r\n                resources[_resourceId].qualityUnits = _newQualityUnits;\r\n\r\n    }\r\n\r\n    //grabe the resources ! array of it.\r\n\r\n    function getTheResourceToOwner( address _owner) external view returns (uint[] memory) {\r\n        uint[] memory result = new uint[](ownerResourceGain[_owner]);\r\n        uint counter = 0;\r\n\r\n        //loop\r\n        for (uint i = 0; i < resources.length; i++) {\r\n            if (resourceToOwner[i] == _owner){\r\n                result[counter] = i;\r\n                counter++;\r\n            }\r\n\r\n            \r\n        }\r\n        return result;\r\n\r\n    }\r\n}\r\n\r\n\r\ncontract ResourceUp is ResourceHelper {\r\nuint randNonce = 0;\r\nuint resourceUpProba = 70;\r\n\r\n\r\n/*function randMod(uint _modulus) internal returns(uint) {\r\n    randNonce++;\r\n    return uint(keccak256( (abi.encodePacked(now, msg.sender,randNonce))) % uint(_modulus));\r\n}*/\r\n\r\nfunction setUp(uint _resourceId, uint _targetId) external onlyOwnerOf(_resourceId) {\r\n    Resource storage myResource = resources[_resourceId];\r\n    Resource storage anotherResource = resources[_targetId];\r\n    uint rand = 100;\r\n    if (rand <= resourceUpProba) {\r\n    myResource.stockGain++;\r\n    myResource.rarity++;\r\n    anotherResource.stockLoss++;\r\n    refinedAndMultiply(_resourceId, anotherResource.quality, \"resource\");\r\n    } else {\r\n    myResource.stockLoss++;\r\n    anotherResource.stockGain++;\r\n    triggerCooldown(myResource);\r\n        }\r\n    }\r\n}\r\n\r\n\r\n\r\ncontract Harvest is  ResourceUp, ERC721 {\r\n\r\n    using SafeMath for uint256;\r\n\r\nmapping (uint => address) resourceApproval;\r\n\r\n    function balanceOf(address _owner) public view returns (uint256 _balance) {\r\n    return ownerResourceGain[_owner];\r\n    }\r\n\r\n    function ownerOf(uint256 _tokenId) public view returns (address _owner) {\r\n        return resourceToOwner[_tokenId];\r\n    }\r\n\r\n    function _transfer(address _from, address _to, uint256 _tokenId) private {\r\n        ownerResourceGain[_to] = ownerResourceGain[_to].add(1);\r\n        ownerResourceGain[msg.sender] = ownerResourceGain[msg.sender].sub(1);\r\n        resourceToOwner[_tokenId] = _to;\r\n        _transfer(_from, _to, _tokenId);\r\n    }\r\n\r\n    function transferTo(address _to, uint256 _tokenId) public onlyOwnerOf(_tokenId) {\r\n        transferTo(_to, _tokenId);\r\n        \r\n    }\r\n\r\n    function approve(address _to, uint256 _tokenId) public onlyOwnerOf(_tokenId) {\r\n        resourceApproval[_tokenId] = _to;\r\n        emit Approval(msg.sender, _to, _tokenId);\r\n    }\r\n\r\n    function harvest(uint256 _tokenId) public {\r\n        require(resourceApproval[_tokenId] == msg.sender);\r\n        address owner = ownerOf(_tokenId);\r\n        _transfer(owner, msg.sender, _tokenId);\r\n    }\r\n\r\n\r\n\r\n}\r\n\r\n\r\n\r\n\r\n\r\n\r\n\r\n\r\n",
  "sourcePath": "C:\\Users\\Rahma John\\Documents\\dev\\CraftingChain-\\contracts\\Harvest.sol",
  "compiler": {
    "name": "solc",
    "version": "0.5.16+commit.9c3226ce.Emscripten.clang"
  },
  "schemaVersion": "3.1.0",
  "updatedAt": "2020-05-05T03:12:58.463Z",
  "devdoc": {
    "methods": {
      "transferOwnership(address)": {
        "details": "Allows the current owner to transfer control of the contract to a newOwner.",
        "params": {
          "newOwner": "The address to transfer ownership to."
        }
      }
    }
  },
  "userdoc": {
    "methods": {}
  }
}