{
  "contractName": "Harvest",
  "abi": [
    {
      "constant": true,
      "inputs": [
        {
          "name": "",
          "type": "uint256"
        }
      ],
      "name": "crafter",
      "outputs": [
        {
          "name": "",
          "type": "address"
        }
      ],
      "payable": false,
      "stateMutability": "view",
      "type": "function"
    },
    {
      "constant": true,
      "inputs": [
        {
          "name": "resourceId",
          "type": "uint256"
        }
      ],
      "name": "harvester",
      "outputs": [
        {
          "name": "",
          "type": "address"
        }
      ],
      "payable": false,
      "stateMutability": "view",
      "type": "function"
    },
    {
      "constant": true,
      "inputs": [],
      "name": "paused",
      "outputs": [
        {
          "name": "",
          "type": "bool"
        }
      ],
      "payable": false,
      "stateMutability": "view",
      "type": "function"
    },
    {
      "constant": true,
      "inputs": [],
      "name": "adventurer",
      "outputs": [
        {
          "name": "",
          "type": "address"
        }
      ],
      "payable": false,
      "stateMutability": "view",
      "type": "function"
    }
  ],
  "bytecode": "0x60806040526000600260146101000a81548160ff02191690831515021790555034801561002b57600080fd5b5061024b8061003b6000396000f3fe608060405260043610610062576000357c0100000000000000000000000000000000000000000000000000000000900463ffffffff1680632413a3fc146100675780634bdaeac1146100be5780635c975abb14610115578063dfc70e3114610144575b600080fd5b34801561007357600080fd5b5061007c61019b565b604051808273ffffffffffffffffffffffffffffffffffffffff1673ffffffffffffffffffffffffffffffffffffffff16815260200191505060405180910390f35b3480156100ca57600080fd5b506100d36101c1565b604051808273ffffffffffffffffffffffffffffffffffffffff1673ffffffffffffffffffffffffffffffffffffffff16815260200191505060405180910390f35b34801561012157600080fd5b5061012a6101e6565b604051808215151515815260200191505060405180910390f35b34801561015057600080fd5b506101596101f9565b604051808273ffffffffffffffffffffffffffffffffffffffff1673ffffffffffffffffffffffffffffffffffffffff16815260200191505060405180910390f35b600160009054906101000a900473ffffffffffffffffffffffffffffffffffffffff1681565b6000809054906101000a900473ffffffffffffffffffffffffffffffffffffffff1681565b600260149054906101000a900460ff1681565b600260009054906101000a900473ffffffffffffffffffffffffffffffffffffffff168156fea165627a7a723058208ecfb871ac0f09203bea82951ee87399d580080a6e55520d5961651ce0afccb00029",
  "source": "// solium-disable linebreak-style\r\npragma solidity >=0.4.21 <0.6.0;\r\n\r\n\r\n\r\n\r\ncontract Harvest {\r\n    /// @title Harvest is the main contract, harvesting ressource on the chain.\r\n    /// @dev harvesting ressource on the chain\r\n    /// @author Rahma Sinien rahma@blockchain101.fr (https://www.blockchain101.fr)\r\naddress public harvester;\r\naddress public crafter;\r\naddress public adventurer;\r\n\r\n    /// @dev access modifier of both accounts.\r\n\r\n     modifier onlyHarvester()  {\r\n        require(msg.sender == harvester);\r\n        _;\r\n    }\r\n    modifier onlyCrafter() {\r\n        require(msg.sender == crafter);\r\n        _;\r\n    }\r\n    modifier onlyAdventurer() {\r\n        require(msg.sender == adventurer);\r\n        _;\r\n    }\r\n\r\n    bool public paused = false;\r\n\r\n    mapping (address=>address)  harvestersToContract;\r\n\r\n\r\n}\r\n\r\n\r\n\r\n\r\n\r\n\r\ncontract ERC721 {\r\n    //methods\r\n    function totalSupply() public view returns (uint256 total);\r\n    function balanceOf(address _owner) public view returns (uint256 balance);\r\n    function ownerOf(uint256 _tokenId) external view returns (address owner);\r\n    function approve(address _to, uint256 _tokenId) external;\r\n    function transfer(address _to, uint256 _tokenId) external;\r\n    function transferFrom(address _from, address _to, uint256 _tokenId) external;\r\n\r\n    // Events\r\n    event Transfer(address from, address to, uint256 tokenId);\r\n    event Approval(address owner, address approved, uint256 tokenId);\r\n\r\n    // Optional\r\n    // function name() public view returns (string name);\r\n    // function symbol() public view returns (string symbol);\r\n    // function tokensOfOwner(address _owner) external view returns (uint256[] tokenIds);\r\n    // function tokenMetadata(uint256 _tokenId, string _preferredTransport) public view returns (string infoUrl);\r\n\r\n    // ERC-165 Compatibility (https://github.com/ethereum/EIPs/issues/165)\r\n    function supportsInterface(bytes4 _interfaceID) external view returns (bool);\r\n}\r\n\r\n\r\ncontract Ressources is Harvest {\r\n/// @title contract for the ressources stats.\r\n/// @author Sinien Rahma blockchain101 , rahma@blockchain101.fr , (https://www.blockchain101.fr)\r\n\r\n\r\n/// @dev event for craking the random ressources , the ownner , th type of ressources  and location.\r\nevent CrakedRessources(address harvester, uint256 n, uint256 locationId);\r\n\r\n\r\n    /// @dev Transfer event as defined in current draft of ERC721. Emitted every time a kitten\r\nevent Transfer(address from, address to, uint256 tokenId );\r\n\r\n\r\n\r\n\r\n///@dev this is the struct of each resources 256 bit words unpack it.\r\n    struct Ressource {\r\n        uint overallQuality;\r\n        uint crackingDate;\r\n        uint conductivity;\r\n        uint rarity;\r\n    }\r\n\r\n\r\n\r\n    /// @dev create another struc for the location id.\r\n\r\n    struct LocationAdd {\r\n        uint256 forest;\r\n        uint64 underground;\r\n        uint32 sea;\r\n        uint16 position;\r\n        uint8 locationType;\r\n    }\r\n\r\n\r\n    //\r\n    ERC721 public nonFungibleContract;\r\n\r\n\r\n    // Cut owner takes on each harvesting, measured in basis points (1/100 of a percent).\r\n    // Values 0-10,000 map to 0%-100%\r\n    uint256 public ownerCut;\r\n\r\n\r\n    // map token id\r\n    mapping (uint256 => Ressource) tokenIdOfRessource;\r\n    mapping (uint256 => LocationAdd) tokeniIdOfLocations;\r\n\r\n    event RessourceCreated(uint256 tokenId, uint256 overallQuality, uint256 rarity);\r\n    event RessourceHarvestedSucess(uint256 tokenId, uint256 conductivity, uint256 crackingDate, address harvester );\r\n    event RessourceHarvestedFail(uint256 tokenId);\r\n\r\n\r\n    // event for the location id so where is it\r\n    event LocationCreated(uint256 locTokenId, uint256 locationType, uint256 position);\r\n    event LocExploredSuccess(uint256 locTokenId, uint256 forest , uint256 undeground, uint256 sea,\r\n    uint256 desert);\r\n    event LocExploredFailed(uint256 locTokenId);\r\n\r\n\r\n   function _owns(address _claimant, uint256 _tokenId) internal view returns (bool) {\r\n        return (nonFungibleContract.ownerOf(_tokenId) == _claimant);\r\n    }\r\n\r\n\r\n     /// @dev Escrows the NFT, assigning ownership to this contract.\r\n    /// Throws if the escrow fails.\r\n    /// @param _owner - Current owner address of token to escrow.\r\n    /// @param _tokenId - ID of token whose approval to verify.\r\n    function _escrow(address _owner, uint256 _tokenId) internal {\r\n        // it will throw if transfer fails\r\n        nonFungibleContract.transferFrom(_owner, address(this), _tokenId);\r\n    }\r\n\r\n    /// @dev Transfers an NFT owned by this contract to another address.\r\n    /// Returns true if the transfer succeeds.\r\n    /// @param _receiver - Address to transfer NFT to.\r\n    /// @param _tokenId - ID of token to transfer.\r\n    function _transfer(address _receiver, uint256 _tokenId) internal {\r\n        // it will throw if transfer fails\r\n        nonFungibleContract.transfer(_receiver, _tokenId);\r\n    }\r\n\r\n    ///  RessourceCreated event.\r\n    /// @param _tokenId -The ID of the token to be put on ressource.\r\n    /// @param _ressource - Auction to add.\r\n    function _addRessource(uint256 _tokenId, Ressource memory _ressource) internal {\r\n        require(_ressource.crackingDate >= 1 minutes);\r\n\r\n        tokenIdOfRessource[_tokenId] = _ressource;\r\n\r\n        emit RessourceCreated(\r\n            uint256(_tokenId),\r\n            uint256(_ressource.rarity),\r\n            uint256(_ressource.overallQuality)\r\n        );\r\n    }\r\n\r\n    /// @param _locations location to add\r\n    /// @param _locTokenId - token of the loc\r\n\r\n function _addLocations(uint256 _locTokenId, LocationAdd memory _locations) internal {\r\n      require(_locations.locationType >= 1 minutes);\r\n\r\n      tokeniIdOfLocations[_locTokenId] = _locations;\r\n\r\n      emit LocationCreated(\r\n          uint256(_locTokenId),\r\n          uint256(_locations.locationType),\r\n          uint256(_locations.position)\r\n      );\r\n\r\n\r\n   }\r\n\r\n\r\n    Ressource[] ressourceStats;\r\n\r\n\r\n    \r\n\r\n    LocationAdd[] locations;\r\n\r\n\r\n\r\n\r\n\r\n\r\n    ///@dev finish the generic stats ressourde from JS files.\r\n\r\n}\r\n\r\n\r\n\r\n\r\n\r\n",
  "sourcePath": "C:/Users/jonat/Documents/GitHub/CraftingChain-/contracts/Harvest.sol",
  "compiler": {
    "name": "solc",
    "version": "0.5.0+commit.1d4f565a.Emscripten.clang"
  },
  "schemaVersion": "3.0.9",
  "updatedAt": "2019-10-13T12:02:07.554Z",
  "devdoc": {
    "methods": {}
  },
  "userdoc": {
    "methods": {}
  }
}