{
  "contractName": "Harvest",
  "abi": [
    {
      "constant": true,
      "inputs": [
        {
          "internalType": "address",
          "name": "",
          "type": "address"
        },
        {
          "internalType": "address",
          "name": "",
          "type": "address"
        }
      ],
      "name": "allowance",
      "outputs": [
        {
          "internalType": "uint256",
          "name": "",
          "type": "uint256"
        }
      ],
      "payable": false,
      "stateMutability": "view",
      "type": "function"
    },
    {
      "constant": true,
      "inputs": [
        {
          "internalType": "address",
          "name": "",
          "type": "address"
        }
      ],
      "name": "balances",
      "outputs": [
        {
          "internalType": "uint256",
          "name": "",
          "type": "uint256"
        }
      ],
      "payable": false,
      "stateMutability": "view",
      "type": "function"
    },
    {
      "constant": true,
      "inputs": [
        {
          "internalType": "uint256",
          "name": "",
          "type": "uint256"
        }
      ],
      "name": "harvesters",
      "outputs": [
        {
          "internalType": "address",
          "name": "",
          "type": "address"
        }
      ],
      "payable": false,
      "stateMutability": "view",
      "type": "function"
    },
    {
      "constant": false,
      "inputs": [
        {
          "internalType": "uint256",
          "name": "ressourceId",
          "type": "uint256"
        }
      ],
      "name": "harvest",
      "outputs": [
        {
          "internalType": "uint256",
          "name": "",
          "type": "uint256"
        }
      ],
      "payable": false,
      "stateMutability": "nonpayable",
      "type": "function"
    },
    {
      "constant": true,
      "inputs": [],
      "name": "getHarvesters",
      "outputs": [
        {
          "internalType": "address[16]",
          "name": "",
          "type": "address[16]"
        }
      ],
      "payable": false,
      "stateMutability": "view",
      "type": "function"
    }
  ],
  "bytecode": "0x608060405234801561001057600080fd5b506103dc806100206000396000f3fe608060405234801561001057600080fd5b50600436106100575760003560e01c806327e235e31461005c578063b2dd53eb146100b4578063dd62ed3e146100fa578063ddc6326214610172578063ea02cea4146101b4575b600080fd5b61009e6004803603602081101561007257600080fd5b81019080803573ffffffffffffffffffffffffffffffffffffffff169060200190929190505050610222565b6040518082815260200191505060405180910390f35b6100bc61023a565b6040518082601060200280838360005b838110156100e75780820151818401526020810190506100cc565b5050505090500191505060405180910390f35b61015c6004803603604081101561011057600080fd5b81019080803573ffffffffffffffffffffffffffffffffffffffff169060200190929190803573ffffffffffffffffffffffffffffffffffffffff1690602001909291905050506102bb565b6040518082815260200191505060405180910390f35b61019e6004803603602081101561018857600080fd5b81019080803590602001909291905050506102e0565b6040518082815260200191505060405180910390f35b6101e0600480360360208110156101ca57600080fd5b8101908080359060200190929190505050610351565b604051808273ffffffffffffffffffffffffffffffffffffffff1673ffffffffffffffffffffffffffffffffffffffff16815260200191505060405180910390f35b60106020528060005260406000206000915090505481565b610242610384565b60006010806020026040519081016040528092919082601080156102b1576020028201915b8160009054906101000a900473ffffffffffffffffffffffffffffffffffffffff1673ffffffffffffffffffffffffffffffffffffffff1681526020019060010190808311610267575b5050505050905090565b6011602052816000526040600020602052806000526040600020600091509150505481565b60008082101580156102f35750600f8211155b6102fc57600080fd5b336000836010811061030a57fe5b0160006101000a81548173ffffffffffffffffffffffffffffffffffffffff021916908373ffffffffffffffffffffffffffffffffffffffff160217905550819050919050565b6000816010811061035e57fe5b016000915054906101000a900473ffffffffffffffffffffffffffffffffffffffff1681565b60405180610200016040528060109060208202803883398082019150509050509056fea265627a7a723158205201fccb132e81eaaa357fb59e94c618f759c462c0e55c16275c6362593082d264736f6c63430005100032",
  "source": "// solium-disable linebreak-style\r\npragma solidity >=0.4.21 <0.6.0;\r\n\r\n\r\nimport \"../node_modules/@openzeppelin/contracts/token/ERC721/ERC721Full.sol\";\r\nimport \"../node_modules/@openzeppelin/contracts/drafts/Counters.sol\";\r\n\r\n\r\n\r\n\r\ncontract Harvest {\r\n\r\n//address of the user during the instance\r\naddress[16] public harvesters;\r\nmapping (address => uint) public balances;\r\nmapping(address => mapping(address => uint256)) public allowance;\r\n\r\n\r\n\r\n//identify the resources\r\nfunction harvest(uint ressourceId) public returns (uint) {\r\n    require(ressourceId >= 0 && ressourceId <= 15);\r\n\r\n\r\n\r\n    harvesters[ressourceId] = msg.sender;\r\n\r\n    return ressourceId;\r\n\r\n    \r\n\r\n\r\n\r\n    \r\n\r\n}\r\n\r\n\r\n\r\n\r\n\r\n\r\n//getHarvester function in order to update all ressources status and place it inside the metamask wallet provider.\r\n\r\nfunction getHarvesters() public view returns (address[16] memory) {\r\n    return harvesters;\r\n\r\n    }\r\n\r\n}\r\n\r\n\r\n//add ERC 721 to contract\r\n\r\n\r\n\r\n\r\n\r\n",
  "sourcePath": "C:\\Users\\Rahma John\\Documents\\dev\\CraftingChain-\\contracts\\Harvest.sol",
  "compiler": {
    "name": "solc",
    "version": "0.5.16+commit.9c3226ce.Emscripten.clang"
  },
  "schemaVersion": "3.0.21",
  "updatedAt": "2020-04-03T13:44:28.679Z",
  "devdoc": {
    "methods": {}
  },
  "userdoc": {
    "methods": {}
  }
}