{
  "contractName": "Harvest",
  "abi": [
    {
      "anonymous": false,
      "inputs": [
        {
          "indexed": true,
          "internalType": "address",
          "name": "owner",
          "type": "address"
        },
        {
          "indexed": true,
          "internalType": "address",
          "name": "approved",
          "type": "address"
        },
        {
          "indexed": true,
          "internalType": "uint256",
          "name": "tokenId",
          "type": "uint256"
        }
      ],
      "name": "Approval",
      "type": "event"
    },
    {
      "anonymous": false,
      "inputs": [
        {
          "indexed": true,
          "internalType": "address",
          "name": "owner",
          "type": "address"
        },
        {
          "indexed": true,
          "internalType": "address",
          "name": "operator",
          "type": "address"
        },
        {
          "indexed": false,
          "internalType": "bool",
          "name": "approved",
          "type": "bool"
        }
      ],
      "name": "ApprovalForAll",
      "type": "event"
    },
    {
      "anonymous": false,
      "inputs": [
        {
          "indexed": false,
          "internalType": "uint256",
          "name": "resourceId",
          "type": "uint256"
        },
        {
          "indexed": false,
          "internalType": "string",
          "name": "name",
          "type": "string"
        },
        {
          "indexed": false,
          "internalType": "uint256",
          "name": "quality",
          "type": "uint256"
        }
      ],
      "name": "NewResource",
      "type": "event"
    },
    {
      "anonymous": false,
      "inputs": [
        {
          "indexed": true,
          "internalType": "address",
          "name": "previousOwner",
          "type": "address"
        },
        {
          "indexed": true,
          "internalType": "address",
          "name": "newOwner",
          "type": "address"
        }
      ],
      "name": "OwnershipTransferred",
      "type": "event"
    },
    {
      "anonymous": false,
      "inputs": [
        {
          "indexed": true,
          "internalType": "address",
          "name": "from",
          "type": "address"
        },
        {
          "indexed": true,
          "internalType": "address",
          "name": "to",
          "type": "address"
        },
        {
          "indexed": true,
          "internalType": "uint256",
          "name": "tokenId",
          "type": "uint256"
        }
      ],
      "name": "Transfer",
      "type": "event"
    },
    {
      "constant": false,
      "inputs": [
        {
          "internalType": "address",
          "name": "_address",
          "type": "address"
        }
      ],
      "name": "SetAnotherContractAddress",
      "outputs": [],
      "payable": false,
      "stateMutability": "nonpayable",
      "type": "function"
    },
    {
      "constant": false,
      "inputs": [
        {
          "internalType": "uint256",
          "name": "_resourceId",
          "type": "uint256"
        },
        {
          "internalType": "string",
          "name": "_Newname",
          "type": "string"
        }
      ],
      "name": "changeName",
      "outputs": [],
      "payable": false,
      "stateMutability": "nonpayable",
      "type": "function"
    },
    {
      "constant": false,
      "inputs": [
        {
          "internalType": "uint256",
          "name": "_resourceId",
          "type": "uint256"
        },
        {
          "internalType": "uint256",
          "name": "_newQualityUnits",
          "type": "uint256"
        }
      ],
      "name": "changeQualityUnits",
      "outputs": [],
      "payable": false,
      "stateMutability": "nonpayable",
      "type": "function"
    },
    {
      "constant": false,
      "inputs": [
        {
          "internalType": "string",
          "name": "_name",
          "type": "string"
        }
      ],
      "name": "createResourceStack",
      "outputs": [],
      "payable": false,
      "stateMutability": "nonpayable",
      "type": "function"
    },
    {
      "constant": true,
      "inputs": [
        {
          "internalType": "uint256",
          "name": "tokenId",
          "type": "uint256"
        }
      ],
      "name": "getApproved",
      "outputs": [
        {
          "internalType": "address",
          "name": "",
          "type": "address"
        }
      ],
      "payable": false,
      "stateMutability": "view",
      "type": "function"
    },
    {
      "constant": true,
      "inputs": [
        {
          "internalType": "uint256",
          "name": "_id",
          "type": "uint256"
        }
      ],
      "name": "getResourcesStats",
      "outputs": [
        {
          "internalType": "bool",
          "name": "isRefiningInProcess",
          "type": "bool"
        },
        {
          "internalType": "bool",
          "name": "isReady",
          "type": "bool"
        },
        {
          "internalType": "uint256",
          "name": "cooldownTime",
          "type": "uint256"
        },
        {
          "internalType": "uint256",
          "name": "extractionTime",
          "type": "uint256"
        },
        {
          "internalType": "uint256",
          "name": "extractionId",
          "type": "uint256"
        },
        {
          "internalType": "uint256",
          "name": "magnetiteId",
          "type": "uint256"
        },
        {
          "internalType": "uint256",
          "name": "hematiteId",
          "type": "uint256"
        },
        {
          "internalType": "uint256",
          "name": "class",
          "type": "uint256"
        }
      ],
      "payable": false,
      "stateMutability": "view",
      "type": "function"
    },
    {
      "constant": true,
      "inputs": [
        {
          "internalType": "address",
          "name": "_owner",
          "type": "address"
        }
      ],
      "name": "getTheResourceToOwner",
      "outputs": [
        {
          "internalType": "uint256[]",
          "name": "",
          "type": "uint256[]"
        }
      ],
      "payable": false,
      "stateMutability": "view",
      "type": "function"
    },
    {
      "constant": true,
      "inputs": [
        {
          "internalType": "address",
          "name": "owner",
          "type": "address"
        },
        {
          "internalType": "address",
          "name": "operator",
          "type": "address"
        }
      ],
      "name": "isApprovedForAll",
      "outputs": [
        {
          "internalType": "bool",
          "name": "",
          "type": "bool"
        }
      ],
      "payable": false,
      "stateMutability": "view",
      "type": "function"
    },
    {
      "constant": true,
      "inputs": [],
      "name": "owner",
      "outputs": [
        {
          "internalType": "address",
          "name": "",
          "type": "address"
        }
      ],
      "payable": false,
      "stateMutability": "view",
      "type": "function"
    },
    {
      "constant": false,
      "inputs": [
        {
          "internalType": "uint256",
          "name": "_resourceId",
          "type": "uint256"
        }
      ],
      "name": "rarityUp",
      "outputs": [],
      "payable": true,
      "stateMutability": "payable",
      "type": "function"
    },
    {
      "constant": false,
      "inputs": [
        {
          "internalType": "uint256",
          "name": "_resourceId",
          "type": "uint256"
        },
        {
          "internalType": "uint256",
          "name": "_idResources",
          "type": "uint256"
        }
      ],
      "name": "refineOnInterface",
      "outputs": [],
      "payable": false,
      "stateMutability": "nonpayable",
      "type": "function"
    },
    {
      "constant": true,
      "inputs": [
        {
          "internalType": "uint256",
          "name": "",
          "type": "uint256"
        }
      ],
      "name": "resourceToOwner",
      "outputs": [
        {
          "internalType": "address",
          "name": "",
          "type": "address"
        }
      ],
      "payable": false,
      "stateMutability": "view",
      "type": "function"
    },
    {
      "constant": true,
      "inputs": [
        {
          "internalType": "uint256",
          "name": "",
          "type": "uint256"
        }
      ],
      "name": "resources",
      "outputs": [
        {
          "internalType": "string",
          "name": "name",
          "type": "string"
        },
        {
          "internalType": "uint256",
          "name": "quality",
          "type": "uint256"
        },
        {
          "internalType": "uint32",
          "name": "rarity",
          "type": "uint32"
        },
        {
          "internalType": "uint256",
          "name": "cooldownTime",
          "type": "uint256"
        },
        {
          "internalType": "uint16",
          "name": "stockGain",
          "type": "uint16"
        },
        {
          "internalType": "uint16",
          "name": "stockLoss",
          "type": "uint16"
        },
        {
          "internalType": "uint32",
          "name": "readyTime",
          "type": "uint32"
        },
        {
          "internalType": "uint256",
          "name": "extractionTime",
          "type": "uint256"
        },
        {
          "internalType": "uint256",
          "name": "extractionId",
          "type": "uint256"
        },
        {
          "internalType": "uint256",
          "name": "magnetiteId",
          "type": "uint256"
        },
        {
          "internalType": "uint256",
          "name": "hematiteId",
          "type": "uint256"
        },
        {
          "internalType": "uint256",
          "name": "class",
          "type": "uint256"
        },
        {
          "internalType": "uint256",
          "name": "qualityUnits",
          "type": "uint256"
        }
      ],
      "payable": false,
      "stateMutability": "view",
      "type": "function"
    },
    {
      "constant": false,
      "inputs": [
        {
          "internalType": "address",
          "name": "from",
          "type": "address"
        },
        {
          "internalType": "address",
          "name": "to",
          "type": "address"
        },
        {
          "internalType": "uint256",
          "name": "tokenId",
          "type": "uint256"
        }
      ],
      "name": "safeTransferFrom",
      "outputs": [],
      "payable": false,
      "stateMutability": "nonpayable",
      "type": "function"
    },
    {
      "constant": false,
      "inputs": [
        {
          "internalType": "address",
          "name": "from",
          "type": "address"
        },
        {
          "internalType": "address",
          "name": "to",
          "type": "address"
        },
        {
          "internalType": "uint256",
          "name": "tokenId",
          "type": "uint256"
        },
        {
          "internalType": "bytes",
          "name": "_data",
          "type": "bytes"
        }
      ],
      "name": "safeTransferFrom",
      "outputs": [],
      "payable": false,
      "stateMutability": "nonpayable",
      "type": "function"
    },
    {
      "constant": false,
      "inputs": [
        {
          "internalType": "address",
          "name": "to",
          "type": "address"
        },
        {
          "internalType": "bool",
          "name": "approved",
          "type": "bool"
        }
      ],
      "name": "setApprovalForAll",
      "outputs": [],
      "payable": false,
      "stateMutability": "nonpayable",
      "type": "function"
    },
    {
      "constant": false,
      "inputs": [
        {
          "internalType": "uint256",
          "name": "_fee",
          "type": "uint256"
        }
      ],
      "name": "setRarityFee",
      "outputs": [],
      "payable": false,
      "stateMutability": "nonpayable",
      "type": "function"
    },
    {
      "constant": false,
      "inputs": [
        {
          "internalType": "uint256",
          "name": "_resourceId",
          "type": "uint256"
        },
        {
          "internalType": "uint256",
          "name": "_targetId",
          "type": "uint256"
        }
      ],
      "name": "setUp",
      "outputs": [],
      "payable": false,
      "stateMutability": "nonpayable",
      "type": "function"
    },
    {
      "constant": true,
      "inputs": [
        {
          "internalType": "bytes4",
          "name": "interfaceId",
          "type": "bytes4"
        }
      ],
      "name": "supportsInterface",
      "outputs": [
        {
          "internalType": "bool",
          "name": "",
          "type": "bool"
        }
      ],
      "payable": false,
      "stateMutability": "view",
      "type": "function"
    },
    {
      "constant": false,
      "inputs": [
        {
          "internalType": "address",
          "name": "from",
          "type": "address"
        },
        {
          "internalType": "address",
          "name": "to",
          "type": "address"
        },
        {
          "internalType": "uint256",
          "name": "tokenId",
          "type": "uint256"
        }
      ],
      "name": "transferFrom",
      "outputs": [],
      "payable": false,
      "stateMutability": "nonpayable",
      "type": "function"
    },
    {
      "constant": false,
      "inputs": [
        {
          "internalType": "address",
          "name": "newOwner",
          "type": "address"
        }
      ],
      "name": "transferOwnership",
      "outputs": [],
      "payable": false,
      "stateMutability": "nonpayable",
      "type": "function"
    },
    {
      "constant": true,
      "inputs": [
        {
          "internalType": "address",
          "name": "_owner",
          "type": "address"
        }
      ],
      "name": "balanceOf",
      "outputs": [
        {
          "internalType": "uint256",
          "name": "_balance",
          "type": "uint256"
        }
      ],
      "payable": false,
      "stateMutability": "view",
      "type": "function"
    },
    {
      "constant": true,
      "inputs": [
        {
          "internalType": "uint256",
          "name": "_tokenId",
          "type": "uint256"
        }
      ],
      "name": "ownerOf",
      "outputs": [
        {
          "internalType": "address",
          "name": "_owner",
          "type": "address"
        }
      ],
      "payable": false,
      "stateMutability": "view",
      "type": "function"
    },
    {
      "constant": false,
      "inputs": [
        {
          "internalType": "address",
          "name": "_to",
          "type": "address"
        },
        {
          "internalType": "uint256",
          "name": "_tokenId",
          "type": "uint256"
        }
      ],
      "name": "transferTo",
      "outputs": [],
      "payable": false,
      "stateMutability": "nonpayable",
      "type": "function"
    },
    {
      "constant": false,
      "inputs": [
        {
          "internalType": "address",
          "name": "_to",
          "type": "address"
        },
        {
          "internalType": "uint256",
          "name": "_tokenId",
          "type": "uint256"
        }
      ],
      "name": "approve",
      "outputs": [],
      "payable": false,
      "stateMutability": "nonpayable",
      "type": "function"
    },
    {
      "constant": false,
      "inputs": [
        {
          "internalType": "uint256",
          "name": "_tokenId",
          "type": "uint256"
        }
      ],
      "name": "harvest",
      "outputs": [],
      "payable": false,
      "stateMutability": "nonpayable",
      "type": "function"
    }
  ],
  "bytecode": "0x608060405260106001556001546002556201518060035564174876e80060085560006009556046600a55336000806101000a81548173ffffffffffffffffffffffffffffffffffffffff021916908373ffffffffffffffffffffffffffffffffffffffff160217905550620000816301ffc9a760e01b6200009f60201b60201c565b620000996380ac58cd60e01b6200009f60201b60201c565b620001a9565b63ffffffff60e01b817bffffffffffffffffffffffffffffffffffffffffffffffffffffffff191614156200013c576040517f08c379a000000000000000000000000000000000000000000000000000000000815260040180806020018281038252601c8152602001807f4552433136353a20696e76616c696420696e746572666163652069640000000081525060200191505060405180910390fd5b6001600b6000837bffffffffffffffffffffffffffffffffffffffffffffffffffffffff19167bffffffffffffffffffffffffffffffffffffffffffffffffffffffff1916815260200190815260200160002060006101000a81548160ff02191690831515021790555050565b6134a480620001b96000396000f3fe6080604052600436106101815760003560e01c80638da5cb5b116100d1578063c39cbef11161008a578063ddc6326211610064578063ddc6326214610c3a578063e441684914610c75578063e985e9c514610cba578063f2fde38b14610d4357610181565b8063c39cbef114610a67578063cfad4b9114610af7578063dd275e4e14610bbf57610181565b80638da5cb5b1461072e57806394fb99ba146107855780639b0c52f81461082b5780639c0f81e9146108b3578063a22cb465146108f8578063b88d4fde1461095557610181565b806327561c231161013e5780635de23626116101185780635de23626146105cf5780636352211e146105fd5780636518362c1461067857806370a08231146106c957610181565b806327561c23146104b45780632ccb1b30146104f957806342842e0e1461055457610181565b806301ffc9a714610186578063051bd205146101f8578063081812fc14610233578063095ea7b3146102ae57806323b872dd14610309578063244d6daa14610384575b600080fd5b34801561019257600080fd5b506101de600480360360208110156101a957600080fd5b8101908080357bffffffffffffffffffffffffffffffffffffffffffffffffffffffff19169060200190929190505050610d94565b604051808215151515815260200191505060405180910390f35b34801561020457600080fd5b506102316004803603602081101561021b57600080fd5b8101908080359060200190929190505050610dfc565b005b34801561023f57600080fd5b5061026c6004803603602081101561025657600080fd5b8101908080359060200190929190505050610e60565b604051808273ffffffffffffffffffffffffffffffffffffffff1673ffffffffffffffffffffffffffffffffffffffff16815260200191505060405180910390f35b3480156102ba57600080fd5b50610307600480360360408110156102d157600080fd5b81019080803573ffffffffffffffffffffffffffffffffffffffff16906020019092919080359060200190929190505050610efb565b005b34801561031557600080fd5b506103826004803603606081101561032c57600080fd5b81019080803573ffffffffffffffffffffffffffffffffffffffff169060200190929190803573ffffffffffffffffffffffffffffffffffffffff16906020019092919080359060200190929190505050611019565b005b34801561039057600080fd5b506103bd600480360360208110156103a757600080fd5b810190808035906020019092919050505061108f565b60405180806020018e81526020018d63ffffffff1663ffffffff1681526020018c81526020018b61ffff1661ffff1681526020018a61ffff1661ffff1681526020018963ffffffff1663ffffffff16815260200188815260200187815260200186815260200185815260200184815260200183815260200182810382528f818151815260200191508051906020019080838360005b8381101561046d578082015181840152602081019050610452565b50505050905090810190601f16801561049a5780820380516001836020036101000a031916815260200191505b509e50505050505050505050505050505060405180910390f35b3480156104c057600080fd5b506104f7600480360360408110156104d757600080fd5b8101908080359060200190929190803590602001909291905050506111d6565b005b34801561050557600080fd5b506105526004803603604081101561051c57600080fd5b81019080803573ffffffffffffffffffffffffffffffffffffffff169060200190929190803590602001909291905050506112b0565b005b34801561056057600080fd5b506105cd6004803603606081101561057757600080fd5b81019080803573ffffffffffffffffffffffffffffffffffffffff169060200190929190803573ffffffffffffffffffffffffffffffffffffffff1690602001909291908035906020019092919050505061132b565b005b6105fb600480360360208110156105e557600080fd5b810190808035906020019092919050505061134b565b005b34801561060957600080fd5b506106366004803603602081101561062057600080fd5b81019080803590602001909291905050506113b3565b604051808273ffffffffffffffffffffffffffffffffffffffff1673ffffffffffffffffffffffffffffffffffffffff16815260200191505060405180910390f35b34801561068457600080fd5b506106c76004803603602081101561069b57600080fd5b81019080803573ffffffffffffffffffffffffffffffffffffffff1690602001909291905050506113f0565b005b3480156106d557600080fd5b50610718600480360360208110156106ec57600080fd5b81019080803573ffffffffffffffffffffffffffffffffffffffff16906020019092919050505061148e565b6040518082815260200191505060405180910390f35b34801561073a57600080fd5b506107436114d7565b604051808273ffffffffffffffffffffffffffffffffffffffff1673ffffffffffffffffffffffffffffffffffffffff16815260200191505060405180910390f35b34801561079157600080fd5b506107d4600480360360208110156107a857600080fd5b81019080803573ffffffffffffffffffffffffffffffffffffffff1690602001909291905050506114fc565b6040518080602001828103825283818151815260200191508051906020019060200280838360005b838110156108175780820151818401526020810190506107fc565b505050509050019250505060405180910390f35b34801561083757600080fd5b506108646004803603602081101561084e57600080fd5b8101908080359060200190929190505050611629565b6040518089151515158152602001881515151581526020018781526020018681526020018581526020018481526020018381526020018281526020019850505050505050505060405180910390f35b3480156108bf57600080fd5b506108f6600480360360408110156108d657600080fd5b81019080803590602001909291908035906020019092919050505061169f565b005b34801561090457600080fd5b506109536004803603604081101561091b57600080fd5b81019080803573ffffffffffffffffffffffffffffffffffffffff1690602001909291908035151590602001909291905050506118cc565b005b34801561096157600080fd5b50610a656004803603608081101561097857600080fd5b81019080803573ffffffffffffffffffffffffffffffffffffffff169060200190929190803573ffffffffffffffffffffffffffffffffffffffff16906020019092919080359060200190929190803590602001906401000000008111156109df57600080fd5b8201836020820111156109f157600080fd5b80359060200191846001830284011164010000000083111715610a1357600080fd5b91908080601f016020809104026020016040519081016040528093929190818152602001838380828437600081840152601f19601f820116905080830192505050505050509192919290505050611a84565b005b348015610a7357600080fd5b50610af560048036036040811015610a8a57600080fd5b810190808035906020019092919080359060200190640100000000811115610ab157600080fd5b820183602082011115610ac357600080fd5b80359060200191846001830284011164010000000083111715610ae557600080fd5b9091929391929390505050611afc565b005b348015610b0357600080fd5b50610bbd60048036036020811015610b1a57600080fd5b8101908080359060200190640100000000811115610b3757600080fd5b820183602082011115610b4957600080fd5b80359060200191846001830284011164010000000083111715610b6b57600080fd5b91908080601f016020809104026020016040519081016040528093929190818152602001838380828437600081840152601f19601f820116905080830192505050505050509192919290505050611be2565b005b348015610bcb57600080fd5b50610bf860048036036020811015610be257600080fd5b8101908080359060200190929190505050611c58565b604051808273ffffffffffffffffffffffffffffffffffffffff1673ffffffffffffffffffffffffffffffffffffffff16815260200191505060405180910390f35b348015610c4657600080fd5b50610c7360048036036020811015610c5d57600080fd5b8101908080359060200190929190505050611c8b565b005b348015610c8157600080fd5b50610cb860048036036040811015610c9857600080fd5b810190808035906020019092919080359060200190929190505050611d12565b005b348015610cc657600080fd5b50610d2960048036036040811015610cdd57600080fd5b81019080803573ffffffffffffffffffffffffffffffffffffffff169060200190929190803573ffffffffffffffffffffffffffffffffffffffff169060200190929190505050611e76565b604051808215151515815260200191505060405180910390f35b348015610d4f57600080fd5b50610d9260048036036020811015610d6657600080fd5b81019080803573ffffffffffffffffffffffffffffffffffffffff169060200190929190505050611f0a565b005b6000600b6000837bffffffffffffffffffffffffffffffffffffffffffffffffffffffff19167bffffffffffffffffffffffffffffffffffffffffffffffffffffffff1916815260200190815260200160002060009054906101000a900460ff169050919050565b6000809054906101000a900473ffffffffffffffffffffffffffffffffffffffff1673ffffffffffffffffffffffffffffffffffffffff163373ffffffffffffffffffffffffffffffffffffffff161415610e5657600080fd5b8060088190555050565b6000610e6b8261205c565b610ec0576040517f08c379a000000000000000000000000000000000000000000000000000000000815260040180806020018281038252602c8152602001806133ea602c913960400191505060405180910390fd5b600d600083815260200190815260200160002060009054906101000a900473ffffffffffffffffffffffffffffffffffffffff169050919050565b806004600082815260200190815260200160002060009054906101000a900473ffffffffffffffffffffffffffffffffffffffff1673ffffffffffffffffffffffffffffffffffffffff163373ffffffffffffffffffffffffffffffffffffffff1614610f6757600080fd5b826010600084815260200190815260200160002060006101000a81548173ffffffffffffffffffffffffffffffffffffffff021916908373ffffffffffffffffffffffffffffffffffffffff160217905550818373ffffffffffffffffffffffffffffffffffffffff163373ffffffffffffffffffffffffffffffffffffffff167f8c5be1e5ebec7d5bd14f71427d1e84f3dd0314c0f7b2291e5b200ac8c7c3b92560405160405180910390a4505050565b61102a6110246120ce565b826120d6565b61107f576040517f08c379a000000000000000000000000000000000000000000000000000000000815260040180806020018281038252603181526020018061343f6031913960400191505060405180910390fd5b61108a8383836121ca565b505050565b6006818154811061109c57fe5b90600052602060002090600b0201600091509050806000018054600181600116156101000203166002900480601f0160208091040260200160405190810160405280929190818152602001828054600181600116156101000203166002900480156111485780601f1061111d57610100808354040283529160200191611148565b820191906000526020600020905b81548152906001019060200180831161112b57829003601f168201915b5050505050908060010154908060020160009054906101000a900463ffffffff16908060030154908060040160009054906101000a900461ffff16908060040160029054906101000a900461ffff16908060040160049054906101000a900463ffffffff169080600501549080600601549080600701549080600801549080600901549080600a015490508d565b60028281600682815481106111e757fe5b90600052602060002090600b020160020160009054906101000a900463ffffffff1663ffffffff16101561121a57600080fd5b836004600082815260200190815260200160002060009054906101000a900473ffffffffffffffffffffffffffffffffffffffff1673ffffffffffffffffffffffffffffffffffffffff163373ffffffffffffffffffffffffffffffffffffffff161461128657600080fd5b836006868154811061129457fe5b90600052602060002090600b0201600a01819055505050505050565b806004600082815260200190815260200160002060009054906101000a900473ffffffffffffffffffffffffffffffffffffffff1673ffffffffffffffffffffffffffffffffffffffff163373ffffffffffffffffffffffffffffffffffffffff161461131c57600080fd5b61132683836112b0565b505050565b61134683838360405180602001604052806000815250611a84565b505050565b600854341461135957600080fd5b6006818154811061136657fe5b90600052602060002090600b0201600201600081819054906101000a900463ffffffff168092919060010191906101000a81548163ffffffff021916908363ffffffff1602179055505050565b60006004600083815260200190815260200160002060009054906101000a900473ffffffffffffffffffffffffffffffffffffffff169050919050565b6000809054906101000a900473ffffffffffffffffffffffffffffffffffffffff1673ffffffffffffffffffffffffffffffffffffffff163373ffffffffffffffffffffffffffffffffffffffff16141561144a57600080fd5b80600760006101000a81548173ffffffffffffffffffffffffffffffffffffffff021916908373ffffffffffffffffffffffffffffffffffffffff16021790555050565b6000600560008373ffffffffffffffffffffffffffffffffffffffff1673ffffffffffffffffffffffffffffffffffffffff168152602001908152602001600020549050919050565b6000809054906101000a900473ffffffffffffffffffffffffffffffffffffffff1681565b606080600560008473ffffffffffffffffffffffffffffffffffffffff1673ffffffffffffffffffffffffffffffffffffffff1681526020019081526020016000205460405190808252806020026020018201604052801561156d5781602001602082028038833980820191505090505b509050600080905060008090505b60068054905081101561161e578473ffffffffffffffffffffffffffffffffffffffff166004600083815260200190815260200160002060009054906101000a900473ffffffffffffffffffffffffffffffffffffffff1673ffffffffffffffffffffffffffffffffffffffff16141561161157808383815181106115fc57fe5b60200260200101818152505081806001019250505b808060010191505061157b565b508192505050919050565b600080600080600080600080600060068a8154811061164457fe5b90600052602060002090600b0201905060008160010154141598504381600301541115975080600301549650806005015495508060060154945080600701549350806008015492508060090154915050919395975091939597565b816004600082815260200190815260200160002060009054906101000a900473ffffffffffffffffffffffffffffffffffffffff1673ffffffffffffffffffffffffffffffffffffffff163373ffffffffffffffffffffffffffffffffffffffff161461170b57600080fd5b60006006848154811061171a57fe5b90600052602060002090600b0201905060006006848154811061173957fe5b90600052602060002090600b02019050600060649050600a54811161184c5782600401600081819054906101000a900461ffff168092919060010191906101000a81548161ffff021916908361ffff1602179055505082600201600081819054906101000a900463ffffffff168092919060010191906101000a81548163ffffffff021916908363ffffffff1602179055505081600401600281819054906101000a900461ffff168092919060010191906101000a81548161ffff021916908361ffff160217905550506118478683600101546040518060400160405280600881526020017f7265736f75726365000000000000000000000000000000000000000000000000815250612425565b6118c4565b82600401600281819054906101000a900461ffff168092919060010191906101000a81548161ffff021916908361ffff1602179055505081600401600081819054906101000a900461ffff168092919060010191906101000a81548161ffff021916908361ffff160217905550506118c383612631565b5b505050505050565b6118d46120ce565b73ffffffffffffffffffffffffffffffffffffffff168273ffffffffffffffffffffffffffffffffffffffff161415611975576040517f08c379a00000000000000000000000000000000000000000000000000000000081526004018080602001828103825260198152602001807f4552433732313a20617070726f766520746f2063616c6c65720000000000000081525060200191505060405180910390fd5b80600f60006119826120ce565b73ffffffffffffffffffffffffffffffffffffffff1673ffffffffffffffffffffffffffffffffffffffff16815260200190815260200160002060008473ffffffffffffffffffffffffffffffffffffffff1673ffffffffffffffffffffffffffffffffffffffff16815260200190815260200160002060006101000a81548160ff0219169083151502179055508173ffffffffffffffffffffffffffffffffffffffff16611a2f6120ce565b73ffffffffffffffffffffffffffffffffffffffff167f17307eab39ab6107e8899845ad3d59bd9653f200f220920489ca2b5937696c3183604051808215151515815260200191505060405180910390a35050565b611a95611a8f6120ce565b836120d6565b611aea576040517f08c379a000000000000000000000000000000000000000000000000000000000815260040180806020018281038252603181526020018061343f6031913960400191505060405180910390fd5b611af68484848461265b565b50505050565b6002838160068281548110611b0d57fe5b90600052602060002090600b020160020160009054906101000a900463ffffffff1663ffffffff161015611b4057600080fd5b846004600082815260200190815260200160002060009054906101000a900473ffffffffffffffffffffffffffffffffffffffff1673ffffffffffffffffffffffffffffffffffffffff163373ffffffffffffffffffffffffffffffffffffffff1614611bac57600080fd5b848460068881548110611bbb57fe5b90600052602060002090600b02016000019190611bd9929190613242565b50505050505050565b6000600560003373ffffffffffffffffffffffffffffffffffffffff1673ffffffffffffffffffffffffffffffffffffffff1681526020019081526020016000205414611c2e57600080fd5b6000611c39826126cd565b905060648181611c4557fe5b0681039050611c548282612775565b5050565b60046020528060005260406000206000915054906101000a900473ffffffffffffffffffffffffffffffffffffffff1681565b3373ffffffffffffffffffffffffffffffffffffffff166010600083815260200190815260200160002060009054906101000a900473ffffffffffffffffffffffffffffffffffffffff1673ffffffffffffffffffffffffffffffffffffffff1614611cf657600080fd5b6000611d01826113b3565b9050611d0e813384612a7d565b5050565b6000600760009054906101000a900473ffffffffffffffffffffffffffffffffffffffff1673ffffffffffffffffffffffffffffffffffffffff16639b0c52f8836040518263ffffffff1660e01b8152600401808281526020019150506101006040518083038186803b158015611d8857600080fd5b505afa158015611d9c573d6000803e3d6000fd5b505050506040513d610100811015611db357600080fd5b810190808051906020019092919080519060200190929190805190602001909291908051906020019092919080519060200190929190805190602001909291908051906020019092919080519060200190929190505050909192939495965090919293949550909192939450909192935090919250909150905080915050611e7183826040518060400160405280600981526020017f5265736f75726365730000000000000000000000000000000000000000000000815250612425565b505050565b6000600f60008473ffffffffffffffffffffffffffffffffffffffff1673ffffffffffffffffffffffffffffffffffffffff16815260200190815260200160002060008373ffffffffffffffffffffffffffffffffffffffff1673ffffffffffffffffffffffffffffffffffffffff16815260200190815260200160002060009054906101000a900460ff16905092915050565b6000809054906101000a900473ffffffffffffffffffffffffffffffffffffffff1673ffffffffffffffffffffffffffffffffffffffff163373ffffffffffffffffffffffffffffffffffffffff161415611f6457600080fd5b600073ffffffffffffffffffffffffffffffffffffffff168173ffffffffffffffffffffffffffffffffffffffff161415611f9e57600080fd5b8073ffffffffffffffffffffffffffffffffffffffff166000809054906101000a900473ffffffffffffffffffffffffffffffffffffffff1673ffffffffffffffffffffffffffffffffffffffff167f8be0079c531659141344cd1fd0a4f28419497f9722a3daafe3b4186f6b6457e060405160405180910390a3806000806101000a81548173ffffffffffffffffffffffffffffffffffffffff021916908373ffffffffffffffffffffffffffffffffffffffff16021790555050565b600080600c600084815260200190815260200160002060009054906101000a900473ffffffffffffffffffffffffffffffffffffffff169050600073ffffffffffffffffffffffffffffffffffffffff168173ffffffffffffffffffffffffffffffffffffffff161415915050919050565b600033905090565b60006120e18261205c565b612136576040517f08c379a000000000000000000000000000000000000000000000000000000000815260040180806020018281038252602c8152602001806133be602c913960400191505060405180910390fd5b6000612141836113b3565b90508073ffffffffffffffffffffffffffffffffffffffff168473ffffffffffffffffffffffffffffffffffffffff1614806121b057508373ffffffffffffffffffffffffffffffffffffffff1661219884610e60565b73ffffffffffffffffffffffffffffffffffffffff16145b806121c157506121c08185611e76565b5b91505092915050565b8273ffffffffffffffffffffffffffffffffffffffff166121ea826113b3565b73ffffffffffffffffffffffffffffffffffffffff1614612256576040517f08c379a00000000000000000000000000000000000000000000000000000000081526004018080602001828103825260298152602001806134166029913960400191505060405180910390fd5b600073ffffffffffffffffffffffffffffffffffffffff168273ffffffffffffffffffffffffffffffffffffffff1614156122dc576040517f08c379a000000000000000000000000000000000000000000000000000000000815260040180806020018281038252602481526020018061339a6024913960400191505060405180910390fd5b6122e581612c0b565b61232c600e60008573ffffffffffffffffffffffffffffffffffffffff1673ffffffffffffffffffffffffffffffffffffffff168152602001908152602001600020612cc9565b612373600e60008473ffffffffffffffffffffffffffffffffffffffff1673ffffffffffffffffffffffffffffffffffffffff168152602001908152602001600020612cec565b81600c600083815260200190815260200160002060006101000a81548173ffffffffffffffffffffffffffffffffffffffff021916908373ffffffffffffffffffffffffffffffffffffffff160217905550808273ffffffffffffffffffffffffffffffffffffffff168473ffffffffffffffffffffffffffffffffffffffff167fddf252ad1be2c89b69c2b068fc378daa952ba7f163c4a11628f55a4df523b3ef60405160405180910390a4505050565b826004600082815260200190815260200160002060009054906101000a900473ffffffffffffffffffffffffffffffffffffffff1673ffffffffffffffffffffffffffffffffffffffff163373ffffffffffffffffffffffffffffffffffffffff161461249157600080fd5b6000600685815481106124a057fe5b90600052602060002090600b020190506124b981612d02565b6124c257600080fd5b60025484816124cd57fe5b50506000600285836001015401816124e157fe5b0490506040516020018080602001828103825260098152602001807f5265736f7572636573000000000000000000000000000000000000000000000081525060200191505060405160208183030381529060405280519060200120846040516020018080602001828103825283818151815260200191508051906020019080838360005b83811015612580578082015181840152602081019050612565565b50505050905090810190601f1680156125ad5780820380516001836020036101000a031916815260200191505b50925050506040516020818303038152906040528051906020012014156125e1576063606482816125da57fe5b0682030190505b6126206040518060400160405280600681526020017f4e6f4e616d65000000000000000000000000000000000000000000000000000081525082612775565b61262982612631565b505050505050565b60035442018160040160046101000a81548163ffffffff021916908363ffffffff16021790555050565b6126668484846121ca565b61267284848484612d29565b6126c7576040517f08c379a00000000000000000000000000000000000000000000000000000000081526004018080602001828103825260328152602001806133686032913960400191505060405180910390fd5b50505050565b600080826040516020018080602001828103825283818151815260200191508051906020019080838360005b838110156127145780820151818401526020810190506126f9565b50505050905090810190601f1680156127415780820380516001836020036101000a031916815260200191505b50925050506040516020818303038152906040528051906020012060001c9050600254818161276c57fe5b06915050919050565b600060016006604051806101a00160405280868152602001858152602001600163ffffffff16815260200160035442018152602001600061ffff168152602001600061ffff168152602001600063ffffffff168152602001600081526020016000815260200160008152602001600081526020016000815260200160108152509080600181540180825580915050906001820390600052602060002090600b020160009091929091909150600082015181600001908051906020019061283c9291906132c2565b506020820151816001015560408201518160020160006101000a81548163ffffffff021916908363ffffffff1602179055506060820151816003015560808201518160040160006101000a81548161ffff021916908361ffff16021790555060a08201518160040160026101000a81548161ffff021916908361ffff16021790555060c08201518160040160046101000a81548163ffffffff021916908363ffffffff16021790555060e08201518160050155610100820151816006015561012082015181600701556101408201518160080155610160820151816009015561018082015181600a01555050019050336004600083815260200190815260200160002060006101000a81548173ffffffffffffffffffffffffffffffffffffffff021916908373ffffffffffffffffffffffffffffffffffffffff160217905550600560003373ffffffffffffffffffffffffffffffffffffffff1673ffffffffffffffffffffffffffffffffffffffff168152602001908152602001600020600081548092919060010191905055507f02d5215bb71349eb338f5113a0f6362972d5ccb5a88ab2e3b3971b993118fdc98184846040518084815260200180602001838152602001828103825284818151815260200191508051906020019080838360005b83811015612a3c578082015181840152602081019050612a21565b50505050905090810190601f168015612a695780820380516001836020036101000a031916815260200191505b5094505050505060405180910390a1505050565b612ad06001600560008573ffffffffffffffffffffffffffffffffffffffff1673ffffffffffffffffffffffffffffffffffffffff1681526020019081526020016000205461306590919063ffffffff16565b600560008473ffffffffffffffffffffffffffffffffffffffff1673ffffffffffffffffffffffffffffffffffffffff16815260200190815260200160002081905550612b666001600560003373ffffffffffffffffffffffffffffffffffffffff1673ffffffffffffffffffffffffffffffffffffffff168152602001908152602001600020546130ed90919063ffffffff16565b600560003373ffffffffffffffffffffffffffffffffffffffff1673ffffffffffffffffffffffffffffffffffffffff16815260200190815260200160002081905550816004600083815260200190815260200160002060006101000a81548173ffffffffffffffffffffffffffffffffffffffff021916908373ffffffffffffffffffffffffffffffffffffffff160217905550612c06838383612a7d565b505050565b600073ffffffffffffffffffffffffffffffffffffffff16600d600083815260200190815260200160002060009054906101000a900473ffffffffffffffffffffffffffffffffffffffff1673ffffffffffffffffffffffffffffffffffffffff1614612cc6576000600d600083815260200190815260200160002060006101000a81548173ffffffffffffffffffffffffffffffffffffffff021916908373ffffffffffffffffffffffffffffffffffffffff1602179055505b50565b612ce1600182600001546130ed90919063ffffffff16565b816000018190555050565b6001816000016000828254019250508190555050565b6000428260040160049054906101000a900463ffffffff1663ffffffff1611159050919050565b6000612d4a8473ffffffffffffffffffffffffffffffffffffffff16613137565b612d57576001905061305d565b600060608573ffffffffffffffffffffffffffffffffffffffff168673ffffffffffffffffffffffffffffffffffffffff1663150b7a02905060e01b612d9b6120ce565b898888604051602401808573ffffffffffffffffffffffffffffffffffffffff1673ffffffffffffffffffffffffffffffffffffffff1681526020018473ffffffffffffffffffffffffffffffffffffffff1673ffffffffffffffffffffffffffffffffffffffff16815260200183815260200180602001828103825283818151815260200191508051906020019080838360005b83811015612e4b578082015181840152602081019050612e30565b50505050905090810190601f168015612e785780820380516001836020036101000a031916815260200191505b5095505050505050604051602081830303815290604052907bffffffffffffffffffffffffffffffffffffffffffffffffffffffff19166020820180517bffffffffffffffffffffffffffffffffffffffffffffffffffffffff83818316178352505050506040518082805190602001908083835b60208310612f105780518252602082019150602081019050602083039250612eed565b6001836020036101000a0380198251168184511680821785525050505050509050019150506000604051808303816000865af19150503d8060008114612f72576040519150601f19603f3d011682016040523d82523d6000602084013e612f77565b606091505b509150915081612fe557600081511115612f945780518082602001fd5b6040517f08c379a00000000000000000000000000000000000000000000000000000000081526004018080602001828103825260328152602001806133686032913960400191505060405180910390fd5b6000818060200190516020811015612ffc57600080fd5b8101908080519060200190929190505050905063150b7a0260e01b7bffffffffffffffffffffffffffffffffffffffffffffffffffffffff1916817bffffffffffffffffffffffffffffffffffffffffffffffffffffffff19161493505050505b949350505050565b6000808284019050838110156130e3576040517f08c379a000000000000000000000000000000000000000000000000000000000815260040180806020018281038252601b8152602001807f536166654d6174683a206164646974696f6e206f766572666c6f77000000000081525060200191505060405180910390fd5b8091505092915050565b600061312f83836040518060400160405280601e81526020017f536166654d6174683a207375627472616374696f6e206f766572666c6f770000815250613182565b905092915050565b60008060007fc5d2460186f7233c927e7db2dcc703c0e500b653ca82273b7bfad8045d85a47060001b9050833f915080821415801561317957506000801b8214155b92505050919050565b600083831115829061322f576040517f08c379a00000000000000000000000000000000000000000000000000000000081526004018080602001828103825283818151815260200191508051906020019080838360005b838110156131f45780820151818401526020810190506131d9565b50505050905090810190601f1680156132215780820380516001836020036101000a031916815260200191505b509250505060405180910390fd5b5060008385039050809150509392505050565b828054600181600116156101000203166002900490600052602060002090601f016020900481019282601f1061328357803560ff19168380011785556132b1565b828001600101855582156132b1579182015b828111156132b0578235825591602001919060010190613295565b5b5090506132be9190613342565b5090565b828054600181600116156101000203166002900490600052602060002090601f016020900481019282601f1061330357805160ff1916838001178555613331565b82800160010185558215613331579182015b82811115613330578251825591602001919060010190613315565b5b50905061333e9190613342565b5090565b61336491905b80821115613360576000816000905550600101613348565b5090565b9056fe4552433732313a207472616e7366657220746f206e6f6e20455243373231526563656976657220696d706c656d656e7465724552433732313a207472616e7366657220746f20746865207a65726f20616464726573734552433732313a206f70657261746f7220717565727920666f72206e6f6e6578697374656e7420746f6b656e4552433732313a20617070726f76656420717565727920666f72206e6f6e6578697374656e7420746f6b656e4552433732313a207472616e73666572206f6620746f6b656e2074686174206973206e6f74206f776e4552433732313a207472616e736665722063616c6c6572206973206e6f74206f776e6572206e6f7220617070726f766564a265627a7a723158201fc0886da95acceeb0435165420e5c323d1910f194061cb0c48dcc3a7992120c64736f6c63430005100032",
  "source": "// solium-disable linebreak-style\r\npragma solidity >=0.4.21 <0.6.6;\r\n\r\n\r\nimport \"../node_modules/@openzeppelin/contracts/token/ERC721/ERC721.sol\";\r\nimport \"../node_modules/@openzeppelin/contracts/math/SafeMath.sol\";\r\n\r\n\r\n\r\n\r\n\r\n\r\n\r\n\r\n\r\n\r\n/**\r\n * @title Ownable\r\n * @dev The Ownable contract has an owner address, and provides basic authorization control\r\n * functions, this simplifies the implementation of \"user permissions\".\r\n */\r\ncontract Ownable {\r\n  address  public owner;\r\n\r\n  event OwnershipTransferred(address indexed previousOwner, address indexed newOwner);\r\n\r\n  /**\r\n   * @dev The Ownable constructor sets the original `owner` of the contract to the sender\r\n   * account.\r\n   */\r\n  constructor () public {\r\n    owner  = msg.sender;\r\n  }\r\n\r\n\r\n  modifier onlyOwner() {\r\n    require(msg.sender == owner);\r\n    _;\r\n  }\r\n\r\n\r\n  /**\r\n   * @dev Allows the current owner to transfer control of the contract to a newOwner.\r\n   * @param newOwner The address to transfer ownership to.\r\n   */\r\n  function transferOwnership(address newOwner) public onlyOwner {\r\n    require(newOwner != address(0));\r\n    emit OwnershipTransferred(owner, newOwner);\r\n    owner = newOwner;\r\n  }\r\n\r\n}\r\n\r\n\r\n\r\n contract Sample is Ownable  {\r\n\r\nevent NewResource (uint resourceId, string name , uint quality);\r\n\r\nuint qualityUnits = 16;\r\nuint qualityModulo = qualityUnits;\r\nuint cooldownTime = 1 days;\r\n\r\n\r\n\r\n\r\nstruct Resource {\r\n    string name;\r\n    uint quality;\r\n    uint32 rarity;\r\n    uint256 cooldownTime;\r\n    uint16 stockGain;\r\n    uint16 stockLoss;\r\n    uint32 readyTime;\r\n    uint256 extractionTime;\r\n    uint256 extractionId;\r\n    uint256 magnetiteId;\r\n    uint256 hematiteId;\r\n    uint256 class;\r\n    //uint256 sediments;\r\n    uint qualityUnits;\r\n\r\n    }\r\n\r\n\r\n\r\n//mapping address and apply stocks\r\n    mapping (uint => address) public resourceToOwner;\r\n    mapping (address => uint) ownerResourceGain;\r\n    Resource[] public resources;\r\n    //mapping(uint256 => Resource) resources[];\r\n\r\n\r\n/// @dev function to crack the resource stacks\r\nfunction _createResource (string memory _name , uint _quality) internal {\r\n    uint id = resources.push(Resource(_name,_quality ,1 , uint256( now + cooldownTime), 0 , 0, 0,\r\n    0, 0, 0, 0, 0, 16) )+1;\r\n    resourceToOwner[id] = msg.sender;\r\n    ownerResourceGain[msg.sender]++;\r\n    emit NewResource(id, _name , _quality);\r\n    }\r\n\r\n    //function to generate rand stats for resources\r\n    function _generateRandomQuality(string memory _str ) private view returns (uint) {\r\n        uint rand = uint(keccak256(abi.encode(_str)));\r\n        return rand % qualityModulo;\r\n    }\r\n\r\n    //function to generate the resource stacks\r\n\r\n    function createResourceStack(string memory _name) public {\r\n    require(ownerResourceGain[msg.sender] ==0);\r\n    uint randomQuality = _generateRandomQuality(_name);\r\n    randomQuality = randomQuality - randomQuality % 100;\r\n    _createResource(_name, randomQuality);\r\n        \r\n\r\n\r\n\r\n        \r\n    }\r\n\r\n\r\n}\r\n\r\n\r\n\r\n\r\ncontract CoreRefined is Sample {\r\n\r\n    \r\n   \r\n    //address ckAddress = 0xe5F977686C4857f370F919858B1F720FA8e9EDe6\r\n    //RefinOnterface Newcontract = RefinOnterface(ckAddress);\r\n\r\n\r\n\r\n    function getResourcesStats(uint256 _id)\r\n        external\r\n        view\r\n        returns (\r\n        bool isRefiningInProcess,\r\n        bool isReady,\r\n        uint256 cooldownTime,\r\n        //uint256 nextActionAt,\r\n        uint256 extractionTime,\r\n        uint256 extractionId,\r\n        uint256 magnetiteId,\r\n        uint256 hematiteId,\r\n        uint256 class\r\n        //uint256 sediments\r\n    ) \r\n    \r\n    \r\n    {\r\n        \r\n        Resource storage stats = resources[_id];\r\n        isRefiningInProcess = (stats.quality != 0);\r\n        isReady = (stats.cooldownTime <= block.number);\r\n        cooldownTime = uint256(stats.cooldownTime);\r\n        extractionTime = uint256(stats.extractionTime);\r\n        extractionId = uint256(stats.extractionId);\r\n        magnetiteId = uint256(stats.magnetiteId);\r\n        hematiteId = uint256(stats.hematiteId);\r\n        class = uint256(stats.class);\r\n        //sediments = stats.sediments;\r\n    }\r\n\r\n}\r\n\r\n\r\n\r\n\r\n/// @title RefiningInterface for resource modification called refining\r\n/// @dev Refining function inside for improving stats of resources.\r\ncontract RefiningInterface is Sample {\r\n    function refining(uint256 _id) external view returns (\r\n        bool isRefiningInProcess,\r\n        bool isReady,\r\n        uint256 cooldownTime,\r\n        uint256 nextActionsAt,\r\n        uint256 extractionTime,\r\n        uint256 extractionId,\r\n        uint256 magnetiteId,\r\n        uint256 hematiteId,\r\n        uint256 class\r\n        //uint256 sediments\r\n    );\r\n}\r\ncontract ResourceRefined is Sample , CoreRefined {\r\n    ResourceRefined CoreRefinedContract;\r\n\r\n    modifier onlyOwnerOf(uint _resourceId) {\r\n        require(msg.sender == resourceToOwner[_resourceId]);\r\n        _;\r\n    }\r\n\r\n\r\n\r\n    function SetAnotherContractAddress (address _address) external onlyOwner {\r\n        CoreRefinedContract\r\n = ResourceRefined(_address);\r\n    }\r\n\r\n    function triggerCooldown (Resource storage _resource ) internal {\r\n        _resource.readyTime = uint32(now+cooldownTime);\r\n\r\n    }\r\n\r\n    function _isReady ( Resource storage _resource ) internal view returns (bool) {\r\n    return (_resource.readyTime <= now);\r\n    }\r\n\r\n\r\n        function refinedAndMultiply( uint _resourceId, uint _targetQuality, string memory _types) internal onlyOwnerOf(_resourceId) {\r\n        Resource storage myResource = resources[_resourceId];\r\n        require(_isReady(myResource));\r\n        _targetQuality % qualityModulo;\r\n        uint newQuality = (myResource.quality + _targetQuality) / 2;\r\n        if(keccak256(abi.encode((_types))) == keccak256(abi.encode(\"Resources\"))) {\r\n            newQuality = newQuality - newQuality % 100 + 99;\r\n    }\r\n    _createResource(\"NoName\", newQuality);\r\n    triggerCooldown(myResource);\r\n    }\r\n\r\n\r\n    function refineOnInterface(uint256 _resourceId, uint256 _idResources ) public {\r\n    uint256 materialUsed;\r\n    (,,,,,,,materialUsed) = CoreRefinedContract.getResourcesStats(_idResources);\r\n    refinedAndMultiply(_resourceId,materialUsed,\"Resources\");\r\n\r\n    \r\n    }\r\n\r\n\r\n\r\n\r\n\r\n}\r\n\r\n\r\n\r\n\r\n\r\n\r\n\r\ncontract  ResourceHelper is ResourceRefined {\r\n    //cost ether for rarityUp fee\r\nuint rarityForFee = 0.0000001 ether;\r\n\r\n    //modify rarity !=not LEVEL\r\n    modifier aboveCostLevel (uint _rarity ,uint _resourceId){\r\n        require(resources[_resourceId].rarity >= _rarity);\r\n        _;\r\n    }\r\n\r\n\r\n    //function to withdraw FIX ISSUE\r\n   modifier onlyOwner() {\r\n    require(msg.sender != owner);\r\n    _;\r\n  }\r\n\r\n    //rarityfee for resources improvements\r\n    function setRarityFee(uint _fee) external onlyOwner {\r\n        rarityForFee = _fee;\r\n    }\r\n\r\n    //Rarity improvement function\r\n    /// @dev this function is set by using RefinedResource.sol contract in order to gain better resources\r\n\r\n    function rarityUp(uint _resourceId) external payable {\r\n        require(msg.value == rarityForFee);\r\n        resources[_resourceId].rarity++;\r\n        }\r\n\r\n        //change the name of resources\r\n\r\n    function changeName(uint _resourceId, string calldata   _Newname) external aboveCostLevel(2, _resourceId) onlyOwnerOf (_resourceId){\r\n        resources[_resourceId].name = _Newname;\r\n        \r\n    }\r\n\r\n    //change the qualityUnits\r\n    function changeQualityUnits(uint _resourceId, uint _newQualityUnits) external aboveCostLevel(2, _resourceId) onlyOwnerOf (_resourceId) {\r\n                resources[_resourceId].qualityUnits = _newQualityUnits;\r\n\r\n    }\r\n\r\n    //grabe the resources ! array of it.\r\n\r\n    function getTheResourceToOwner( address _owner) external view returns (uint[] memory) {\r\n        uint[] memory result = new uint[](ownerResourceGain[_owner]);\r\n        uint counter = 0;\r\n\r\n        //loop\r\n        for (uint i = 0; i < resources.length; i++) {\r\n            if (resourceToOwner[i] == _owner){\r\n                result[counter] = i;\r\n                counter++;\r\n            }\r\n\r\n            \r\n        }\r\n        return result;\r\n\r\n    }\r\n}\r\n\r\n\r\ncontract ResourceUp is ResourceHelper {\r\nuint randNonce = 0;\r\nuint resourceUpProba = 70;\r\n\r\n\r\n/*function randMod(uint _modulus) internal returns(uint) {\r\n    randNonce++;\r\n    return uint(keccak256( (abi.encodePacked(now, msg.sender,randNonce))) % uint(_modulus));\r\n}*/\r\n\r\nfunction setUp(uint _resourceId, uint _targetId) external onlyOwnerOf(_resourceId) {\r\n    Resource storage myResource = resources[_resourceId];\r\n    Resource storage anotherResource = resources[_targetId];\r\n    uint rand = 100;\r\n    if (rand <= resourceUpProba) {\r\n    myResource.stockGain++;\r\n    myResource.rarity++;\r\n    anotherResource.stockLoss++;\r\n    refinedAndMultiply(_resourceId, anotherResource.quality, \"resource\");\r\n    } else {\r\n    myResource.stockLoss++;\r\n    anotherResource.stockGain++;\r\n    triggerCooldown(myResource);\r\n        }\r\n    }\r\n}\r\n\r\n\r\n\r\ncontract Harvest is  ResourceUp, ERC721 {\r\n\r\n    using SafeMath for uint256;\r\n\r\nmapping (uint => address) resourceApproval;\r\n\r\n    function balanceOf(address _owner) public view returns (uint256 _balance) {\r\n    return ownerResourceGain[_owner];\r\n    }\r\n\r\n    function ownerOf(uint256 _tokenId) public view returns (address _owner) {\r\n        return resourceToOwner[_tokenId];\r\n    }\r\n\r\n    function _transfer(address _from, address _to, uint256 _tokenId) private {\r\n        ownerResourceGain[_to] = ownerResourceGain[_to].add(1);\r\n        ownerResourceGain[msg.sender] = ownerResourceGain[msg.sender].sub(1);\r\n        resourceToOwner[_tokenId] = _to;\r\n        _transfer(_from, _to, _tokenId);\r\n    }\r\n\r\n    function transferTo(address _to, uint256 _tokenId) public onlyOwnerOf(_tokenId) {\r\n        transferTo(_to, _tokenId);\r\n        \r\n    }\r\n\r\n    function approve(address _to, uint256 _tokenId) public onlyOwnerOf(_tokenId) {\r\n        resourceApproval[_tokenId] = _to;\r\n        emit Approval(msg.sender, _to, _tokenId);\r\n    }\r\n\r\n    function harvest(uint256 _tokenId) public {\r\n        require(resourceApproval[_tokenId] == msg.sender);\r\n        address owner = ownerOf(_tokenId);\r\n        _transfer(owner, msg.sender, _tokenId);\r\n    }\r\n\r\n\r\n\r\n}\r\n\r\n\r\n\r\n\r\n\r\n\r\n\r\n\r\n",
  "sourcePath": "C:\\Users\\Rahma John\\Documents\\dev\\CraftingChain-\\contracts\\Harvest.sol",
  "compiler": {
    "name": "solc",
    "version": "0.5.16+commit.9c3226ce.Emscripten.clang"
  },
  "schemaVersion": "3.1.0",
  "updatedAt": "2020-05-05T03:16:00.571Z",
  "networkType": "ethereum",
  "devdoc": {
    "methods": {
      "getApproved(uint256)": {
        "details": "Gets the approved address for a token ID, or zero if no address set Reverts if the token ID does not exist.",
        "params": {
          "tokenId": "uint256 ID of the token to query the approval of"
        },
        "return": "address currently approved for the given token ID"
      },
      "isApprovedForAll(address,address)": {
        "details": "Tells whether an operator is approved by a given owner.",
        "params": {
          "operator": "operator address which you want to query the approval of",
          "owner": "owner address which you want to query the approval of"
        },
        "return": "bool whether the given operator is approved by the given owner"
      },
      "rarityUp(uint256)": {
        "details": "this function is set by using RefinedResource.sol contract in order to gain better resources"
      },
      "safeTransferFrom(address,address,uint256)": {
        "details": "Safely transfers the ownership of a given token ID to another address If the target address is a contract, it must implement {IERC721Receiver-onERC721Received}, which is called upon a safe transfer, and return the magic value `bytes4(keccak256(\"onERC721Received(address,address,uint256,bytes)\"))`; otherwise, the transfer is reverted. Requires the msg.sender to be the owner, approved, or operator",
        "params": {
          "from": "current owner of the token",
          "to": "address to receive the ownership of the given token ID",
          "tokenId": "uint256 ID of the token to be transferred"
        }
      },
      "safeTransferFrom(address,address,uint256,bytes)": {
        "details": "Safely transfers the ownership of a given token ID to another address If the target address is a contract, it must implement {IERC721Receiver-onERC721Received}, which is called upon a safe transfer, and return the magic value `bytes4(keccak256(\"onERC721Received(address,address,uint256,bytes)\"))`; otherwise, the transfer is reverted. Requires the _msgSender() to be the owner, approved, or operator",
        "params": {
          "_data": "bytes data to send along with a safe transfer check",
          "from": "current owner of the token",
          "to": "address to receive the ownership of the given token ID",
          "tokenId": "uint256 ID of the token to be transferred"
        }
      },
      "setApprovalForAll(address,bool)": {
        "details": "Sets or unsets the approval of a given operator An operator is allowed to transfer all tokens of the sender on their behalf.",
        "params": {
          "approved": "representing the status of the approval to be set",
          "to": "operator address to set the approval"
        }
      },
      "supportsInterface(bytes4)": {
        "details": "See {IERC165-supportsInterface}.     * Time complexity O(1), guaranteed to always use less than 30 000 gas."
      },
      "transferFrom(address,address,uint256)": {
        "details": "Transfers the ownership of a given token ID to another address. Usage of this method is discouraged, use {safeTransferFrom} whenever possible. Requires the msg.sender to be the owner, approved, or operator.",
        "params": {
          "from": "current owner of the token",
          "to": "address to receive the ownership of the given token ID",
          "tokenId": "uint256 ID of the token to be transferred"
        }
      },
      "transferOwnership(address)": {
        "details": "Allows the current owner to transfer control of the contract to a newOwner.",
        "params": {
          "newOwner": "The address to transfer ownership to."
        }
      }
    }
  },
  "userdoc": {
    "methods": {}
  }
}