{
  "contractName": "ProxyRegistry",
  "abi": [
    {
      "constant": true,
      "inputs": [
        {
          "internalType": "address",
          "name": "",
          "type": "address"
        }
      ],
      "name": "proxies",
      "outputs": [
        {
          "internalType": "contract OwnableDelegateProxy",
          "name": "",
          "type": "address"
        }
      ],
      "payable": false,
      "stateMutability": "view",
      "type": "function"
    }
  ],
  "bytecode": "0x608060405234801561001057600080fd5b50610116806100206000396000f3fe6080604052348015600f57600080fd5b506004361060285760003560e01c8063c455279114602d575b600080fd5b606c60048036036020811015604157600080fd5b81019080803573ffffffffffffffffffffffffffffffffffffffff16906020019092919050505060ae565b604051808273ffffffffffffffffffffffffffffffffffffffff1673ffffffffffffffffffffffffffffffffffffffff16815260200191505060405180910390f35b60006020528060005260406000206000915054906101000a900473ffffffffffffffffffffffffffffffffffffffff168156fea265627a7a72315820f797b23c696dc96e442bf4d351e216ec8f036063bc5beb8df1c022e985e08dac64736f6c63430005100032",
  "source": "// solium-disable linebreak-style\r\npragma solidity >=0.4.21 <0.6.0;\r\n\r\n\r\n\r\n/**FILE NOT IN USE FOR THE MOMENT CONSIDERGIN NOY USING METADATA FOR THE SPCEC OF EACH TOKENS */\r\n\r\n\r\nimport \"../node_modules/@openzeppelin/contracts/token/ERC721/ERC721Full.sol\";\r\nimport '../node_modules/@openzeppelin/contracts/ownership/Ownable.sol';\r\nimport './Strings.sol';\r\nimport \"./Harvest.sol\";\r\n\r\ncontract OwnableDelegateProxy { }\r\n\r\ncontract ProxyRegistry {\r\n    mapping(address => OwnableDelegateProxy) public proxies;\r\n}\r\n\r\n/**\r\n * @title TradeableERC721Token\r\n * TradeableERC721Token - ERC721 contract that whitelists a trading address, and has minting functionality.\r\n */\r\ncontract TradeableERC721Token is ERC721Full, Ownable {\r\nusing Strings for string;\r\n\r\naddress harvesters;\r\nuint256 private _currentTokenId = 0;\r\n\r\nconstructor(string memory _name, string memory _symbol, address _harvesters) ERC721Full(_name, _symbol) public {\r\n        harvesters = _harvesters;\r\n}\r\n\r\n/**\r\n    * @dev Mints a token to an address with a tokenURI.\r\n    * @param _to address of the future owner of the token\r\n    */\r\n    function mintTo(address _to) public onlyOwner {\r\n    uint256 newTokenId = _getNextTokenId();\r\n    _mint(_to, newTokenId);\r\n    _incrementTokenId();\r\n    }\r\n\r\n/**\r\n    * @dev calculates the next token ID based on value of _currentTokenId\r\n    * @return uint256 for the next token ID\r\n    */\r\nfunction _getNextTokenId() private view returns (uint256) {\r\n    return _currentTokenId.add(1);\r\n}\r\n\r\n/**\r\n    * @dev increments the value of _currentTokenId\r\n    */\r\nfunction _incrementTokenId() private  {\r\n    _currentTokenId++;\r\n}\r\n\r\nfunction baseTokenURI() public view returns (string memory) {\r\n    return \"\";\r\n}\r\n\r\nfunction tokenURI(uint256 _tokenId) external view returns (string memory) {\r\n    this;\r\n    return Strings.strConcat(\r\n    baseTokenURI(),\r\n    Strings.uint2str(_tokenId)\r\n    );\r\n}\r\n\r\n\r\nfunction isApprovedForAll(\r\n    address owner,\r\n    address operator\r\n)\r\n    public\r\n    view\r\n    returns (bool)\r\n{\r\n    // Whitelist proxy contract for easy trading.\r\n    ProxyRegistry proxyRegistry = ProxyRegistry(harvesters);\r\n    if (address(proxyRegistry.proxies(owner)) == operator) {\r\n        return true;\r\n    }\r\n\r\n    return super.isApprovedForAll(owner, operator);\r\n}\r\n}",
  "sourcePath": "C:/Users/Rahma John/Documents/dev/CraftingChain-/contracts/TradeableERC721Token.sol",
  "compiler": {
    "name": "solc",
    "version": "0.5.16+commit.9c3226ce.Emscripten.clang"
  },
  "schemaVersion": "3.0.21",
  "updatedAt": "2020-04-04T17:12:09.730Z",
  "devdoc": {
    "methods": {}
  },
  "userdoc": {
    "methods": {}
  }
}