{
  "contractName": "ResourceUp",
  "abi": [
    {
      "anonymous": false,
      "inputs": [
        {
          "indexed": false,
          "internalType": "uint256",
          "name": "resourceId",
          "type": "uint256"
        },
        {
          "indexed": false,
          "internalType": "string",
          "name": "name",
          "type": "string"
        },
        {
          "indexed": false,
          "internalType": "uint256",
          "name": "quality",
          "type": "uint256"
        }
      ],
      "name": "NewResource",
      "type": "event"
    },
    {
      "anonymous": false,
      "inputs": [
        {
          "indexed": true,
          "internalType": "address",
          "name": "previousOwner",
          "type": "address"
        },
        {
          "indexed": true,
          "internalType": "address",
          "name": "newOwner",
          "type": "address"
        }
      ],
      "name": "OwnershipTransferred",
      "type": "event"
    },
    {
      "constant": false,
      "inputs": [
        {
          "internalType": "address",
          "name": "_address",
          "type": "address"
        }
      ],
      "name": "SetAnotherContractAddress",
      "outputs": [],
      "payable": false,
      "stateMutability": "nonpayable",
      "type": "function"
    },
    {
      "constant": false,
      "inputs": [
        {
          "internalType": "uint256",
          "name": "_resourceId",
          "type": "uint256"
        },
        {
          "internalType": "string",
          "name": "_Newname",
          "type": "string"
        }
      ],
      "name": "changeName",
      "outputs": [],
      "payable": false,
      "stateMutability": "nonpayable",
      "type": "function"
    },
    {
      "constant": false,
      "inputs": [
        {
          "internalType": "uint256",
          "name": "_resourceId",
          "type": "uint256"
        },
        {
          "internalType": "uint256",
          "name": "_newQualityUnits",
          "type": "uint256"
        }
      ],
      "name": "changeQualityUnits",
      "outputs": [],
      "payable": false,
      "stateMutability": "nonpayable",
      "type": "function"
    },
    {
      "constant": false,
      "inputs": [
        {
          "internalType": "string",
          "name": "_name",
          "type": "string"
        }
      ],
      "name": "createResourceStack",
      "outputs": [],
      "payable": false,
      "stateMutability": "nonpayable",
      "type": "function"
    },
    {
      "constant": true,
      "inputs": [
        {
          "internalType": "uint256",
          "name": "_id",
          "type": "uint256"
        }
      ],
      "name": "getResourcesStats",
      "outputs": [
        {
          "internalType": "bool",
          "name": "isRefiningInProcess",
          "type": "bool"
        },
        {
          "internalType": "bool",
          "name": "isReady",
          "type": "bool"
        },
        {
          "internalType": "uint256",
          "name": "cooldownTime",
          "type": "uint256"
        },
        {
          "internalType": "uint256",
          "name": "extractionTime",
          "type": "uint256"
        },
        {
          "internalType": "uint256",
          "name": "extractionId",
          "type": "uint256"
        },
        {
          "internalType": "uint256",
          "name": "magnetiteId",
          "type": "uint256"
        },
        {
          "internalType": "uint256",
          "name": "hematiteId",
          "type": "uint256"
        },
        {
          "internalType": "uint256",
          "name": "class",
          "type": "uint256"
        }
      ],
      "payable": false,
      "stateMutability": "view",
      "type": "function"
    },
    {
      "constant": true,
      "inputs": [
        {
          "internalType": "address",
          "name": "_owner",
          "type": "address"
        }
      ],
      "name": "getTheResourceToOwner",
      "outputs": [
        {
          "internalType": "uint256[]",
          "name": "",
          "type": "uint256[]"
        }
      ],
      "payable": false,
      "stateMutability": "view",
      "type": "function"
    },
    {
      "constant": true,
      "inputs": [],
      "name": "newContractAddress",
      "outputs": [
        {
          "internalType": "address",
          "name": "",
          "type": "address"
        }
      ],
      "payable": false,
      "stateMutability": "view",
      "type": "function"
    },
    {
      "constant": true,
      "inputs": [],
      "name": "owner",
      "outputs": [
        {
          "internalType": "address",
          "name": "",
          "type": "address"
        }
      ],
      "payable": false,
      "stateMutability": "view",
      "type": "function"
    },
    {
      "constant": false,
      "inputs": [
        {
          "internalType": "uint256",
          "name": "_resourceId",
          "type": "uint256"
        }
      ],
      "name": "rarityUp",
      "outputs": [],
      "payable": true,
      "stateMutability": "payable",
      "type": "function"
    },
    {
      "constant": false,
      "inputs": [
        {
          "internalType": "uint256",
          "name": "_resourceId",
          "type": "uint256"
        },
        {
          "internalType": "uint256",
          "name": "_idResources",
          "type": "uint256"
        }
      ],
      "name": "refineOnInterface",
      "outputs": [],
      "payable": false,
      "stateMutability": "nonpayable",
      "type": "function"
    },
    {
      "constant": true,
      "inputs": [
        {
          "internalType": "uint256",
          "name": "",
          "type": "uint256"
        }
      ],
      "name": "resourceToOwner",
      "outputs": [
        {
          "internalType": "address",
          "name": "",
          "type": "address"
        }
      ],
      "payable": false,
      "stateMutability": "view",
      "type": "function"
    },
    {
      "constant": true,
      "inputs": [
        {
          "internalType": "uint256",
          "name": "",
          "type": "uint256"
        }
      ],
      "name": "resources",
      "outputs": [
        {
          "internalType": "string",
          "name": "name",
          "type": "string"
        },
        {
          "internalType": "uint256",
          "name": "quality",
          "type": "uint256"
        },
        {
          "internalType": "uint32",
          "name": "rarity",
          "type": "uint32"
        },
        {
          "internalType": "uint256",
          "name": "cooldownTime",
          "type": "uint256"
        },
        {
          "internalType": "uint16",
          "name": "stockGain",
          "type": "uint16"
        },
        {
          "internalType": "uint16",
          "name": "stockLoss",
          "type": "uint16"
        },
        {
          "internalType": "uint32",
          "name": "readyTime",
          "type": "uint32"
        },
        {
          "internalType": "uint256",
          "name": "extractionTime",
          "type": "uint256"
        },
        {
          "internalType": "uint256",
          "name": "extractionId",
          "type": "uint256"
        },
        {
          "internalType": "uint256",
          "name": "magnetiteId",
          "type": "uint256"
        },
        {
          "internalType": "uint256",
          "name": "hematiteId",
          "type": "uint256"
        },
        {
          "internalType": "uint256",
          "name": "class",
          "type": "uint256"
        },
        {
          "internalType": "uint256",
          "name": "qualityUnits",
          "type": "uint256"
        }
      ],
      "payable": false,
      "stateMutability": "view",
      "type": "function"
    },
    {
      "constant": false,
      "inputs": [
        {
          "internalType": "uint256",
          "name": "_fee",
          "type": "uint256"
        }
      ],
      "name": "setRarityFee",
      "outputs": [],
      "payable": false,
      "stateMutability": "nonpayable",
      "type": "function"
    },
    {
      "constant": false,
      "inputs": [
        {
          "internalType": "address payable",
          "name": "newOwner",
          "type": "address"
        }
      ],
      "name": "transferOwnership",
      "outputs": [],
      "payable": false,
      "stateMutability": "nonpayable",
      "type": "function"
    },
    {
      "constant": false,
      "inputs": [
        {
          "internalType": "uint256",
          "name": "_resourceId",
          "type": "uint256"
        },
        {
          "internalType": "uint256",
          "name": "_targetId",
          "type": "uint256"
        }
      ],
      "name": "setUp",
      "outputs": [],
      "payable": false,
      "stateMutability": "nonpayable",
      "type": "function"
    }
  ],
  "bytecode": "0x6080604052601060015560015460025562015180600355620f42406009556000600a556046600b55336000806101000a81548173ffffffffffffffffffffffffffffffffffffffff021916908373ffffffffffffffffffffffffffffffffffffffff160217905550611af5806100766000396000f3fe6080604052600436106100e85760003560e01c806394fb99ba1161008a578063cfad4b9111610059578063cfad4b91146105cd578063dd275e4e14610695578063e441684914610710578063f2fde38b14610755576100e8565b806394fb99ba146103ca5780639b0c52f8146104705780639c0f81e9146104f8578063c39cbef11461053d576100e8565b80635de23626116100c65780635de236261461029d5780636518362c146102cb5780636af04a571461031c5780638da5cb5b14610373576100e8565b8063051bd205146100ed578063244d6daa1461012857806327561c2314610258575b600080fd5b3480156100f957600080fd5b506101266004803603602081101561011057600080fd5b81019080803590602001909291905050506107a6565b005b34801561013457600080fd5b506101616004803603602081101561014b57600080fd5b8101908080359060200190929190505050610809565b60405180806020018e81526020018d63ffffffff1663ffffffff1681526020018c81526020018b61ffff1661ffff1681526020018a61ffff1661ffff1681526020018963ffffffff1663ffffffff16815260200188815260200187815260200186815260200185815260200184815260200183815260200182810382528f818151815260200191508051906020019080838360005b838110156102115780820151818401526020810190506101f6565b50505050905090810190601f16801561023e5780820380516001836020036101000a031916815260200191505b509e50505050505050505050505050505060405180910390f35b34801561026457600080fd5b5061029b6004803603604081101561027b57600080fd5b810190808035906020019092919080359060200190929190505050610950565b005b6102c9600480360360208110156102b357600080fd5b8101908080359060200190929190505050610a2a565b005b3480156102d757600080fd5b5061031a600480360360208110156102ee57600080fd5b81019080803573ffffffffffffffffffffffffffffffffffffffff169060200190929190505050610a92565b005b34801561032857600080fd5b50610331610b2f565b604051808273ffffffffffffffffffffffffffffffffffffffff1673ffffffffffffffffffffffffffffffffffffffff16815260200191505060405180910390f35b34801561037f57600080fd5b50610388610b55565b604051808273ffffffffffffffffffffffffffffffffffffffff1673ffffffffffffffffffffffffffffffffffffffff16815260200191505060405180910390f35b3480156103d657600080fd5b50610419600480360360208110156103ed57600080fd5b81019080803573ffffffffffffffffffffffffffffffffffffffff169060200190929190505050610b7a565b6040518080602001828103825283818151815260200191508051906020019060200280838360005b8381101561045c578082015181840152602081019050610441565b505050509050019250505060405180910390f35b34801561047c57600080fd5b506104a96004803603602081101561049357600080fd5b8101908080359060200190929190505050610ca7565b6040518089151515158152602001881515151581526020018781526020018681526020018581526020018481526020018381526020018281526020019850505050505050505060405180910390f35b34801561050457600080fd5b5061053b6004803603604081101561051b57600080fd5b810190808035906020019092919080359060200190929190505050610d1d565b005b34801561054957600080fd5b506105cb6004803603604081101561056057600080fd5b81019080803590602001909291908035906020019064010000000081111561058757600080fd5b82018360208201111561059957600080fd5b803590602001918460018302840111640100000000831117156105bb57600080fd5b9091929391929390505050610f4a565b005b3480156105d957600080fd5b50610693600480360360208110156105f057600080fd5b810190808035906020019064010000000081111561060d57600080fd5b82018360208201111561061f57600080fd5b8035906020019184600183028401116401000000008311171561064157600080fd5b91908080601f016020809104026020016040519081016040528093929190818152602001838380828437600081840152601f19601f820116905080830192505050505050509192919290505050611030565b005b3480156106a157600080fd5b506106ce600480360360208110156106b857600080fd5b81019080803590602001909291905050506110a6565b604051808273ffffffffffffffffffffffffffffffffffffffff1673ffffffffffffffffffffffffffffffffffffffff16815260200191505060405180910390f35b34801561071c57600080fd5b506107536004803603604081101561073357600080fd5b8101908080359060200190929190803590602001909291905050506110d9565b005b34801561076157600080fd5b506107a46004803603602081101561077857600080fd5b81019080803573ffffffffffffffffffffffffffffffffffffffff16906020019092919050505061123d565b005b6000809054906101000a900473ffffffffffffffffffffffffffffffffffffffff1673ffffffffffffffffffffffffffffffffffffffff163373ffffffffffffffffffffffffffffffffffffffff16146107ff57600080fd5b8060098190555050565b6006818154811061081657fe5b90600052602060002090600b0201600091509050806000018054600181600116156101000203166002900480601f0160208091040260200160405190810160405280929190818152602001828054600181600116156101000203166002900480156108c25780601f10610897576101008083540402835291602001916108c2565b820191906000526020600020905b8154815290600101906020018083116108a557829003601f168201915b5050505050908060010154908060020160009054906101000a900463ffffffff16908060030154908060040160009054906101000a900461ffff16908060040160029054906101000a900461ffff16908060040160049054906101000a900463ffffffff169080600501549080600601549080600701549080600801549080600901549080600a015490508d565b600282816006828154811061096157fe5b90600052602060002090600b020160020160009054906101000a900463ffffffff1663ffffffff16101561099457600080fd5b836004600082815260200190815260200160002060009054906101000a900473ffffffffffffffffffffffffffffffffffffffff1673ffffffffffffffffffffffffffffffffffffffff163373ffffffffffffffffffffffffffffffffffffffff1614610a0057600080fd5b8360068681548110610a0e57fe5b90600052602060002090600b0201600a01819055505050505050565b6009543414610a3857600080fd5b60068181548110610a4557fe5b90600052602060002090600b0201600201600081819054906101000a900463ffffffff168092919060010191906101000a81548163ffffffff021916908363ffffffff1602179055505050565b6000809054906101000a900473ffffffffffffffffffffffffffffffffffffffff1673ffffffffffffffffffffffffffffffffffffffff163373ffffffffffffffffffffffffffffffffffffffff1614610aeb57600080fd5b80600860006101000a81548173ffffffffffffffffffffffffffffffffffffffff021916908373ffffffffffffffffffffffffffffffffffffffff16021790555050565b600760009054906101000a900473ffffffffffffffffffffffffffffffffffffffff1681565b6000809054906101000a900473ffffffffffffffffffffffffffffffffffffffff1681565b606080600560008473ffffffffffffffffffffffffffffffffffffffff1673ffffffffffffffffffffffffffffffffffffffff16815260200190815260200160002054604051908082528060200260200182016040528015610beb5781602001602082028038833980820191505090505b509050600080905060008090505b600680549050811015610c9c578473ffffffffffffffffffffffffffffffffffffffff166004600083815260200190815260200160002060009054906101000a900473ffffffffffffffffffffffffffffffffffffffff1673ffffffffffffffffffffffffffffffffffffffff161415610c8f5780838381518110610c7a57fe5b60200260200101818152505081806001019250505b8080600101915050610bf9565b508192505050919050565b600080600080600080600080600060068a81548110610cc257fe5b90600052602060002090600b0201905060008160010154141598504381600301541115975080600301549650806005015495508060060154945080600701549350806008015492508060090154915050919395975091939597565b816004600082815260200190815260200160002060009054906101000a900473ffffffffffffffffffffffffffffffffffffffff1673ffffffffffffffffffffffffffffffffffffffff163373ffffffffffffffffffffffffffffffffffffffff1614610d8957600080fd5b600060068481548110610d9857fe5b90600052602060002090600b02019050600060068481548110610db757fe5b90600052602060002090600b02019050600060649050600b548111610eca5782600401600081819054906101000a900461ffff168092919060010191906101000a81548161ffff021916908361ffff1602179055505082600201600081819054906101000a900463ffffffff168092919060010191906101000a81548163ffffffff021916908363ffffffff1602179055505081600401600281819054906101000a900461ffff168092919060010191906101000a81548161ffff021916908361ffff16021790555050610ec58683600101546040518060400160405280600881526020017f7265736f7572636500000000000000000000000000000000000000000000000081525061138e565b610f42565b82600401600281819054906101000a900461ffff168092919060010191906101000a81548161ffff021916908361ffff1602179055505081600401600081819054906101000a900461ffff168092919060010191906101000a81548161ffff021916908361ffff16021790555050610f418361159a565b5b505050505050565b6002838160068281548110610f5b57fe5b90600052602060002090600b020160020160009054906101000a900463ffffffff1663ffffffff161015610f8e57600080fd5b846004600082815260200190815260200160002060009054906101000a900473ffffffffffffffffffffffffffffffffffffffff1673ffffffffffffffffffffffffffffffffffffffff163373ffffffffffffffffffffffffffffffffffffffff1614610ffa57600080fd5b84846006888154811061100957fe5b90600052602060002090600b0201600001919061102792919061199b565b50505050505050565b6000600560003373ffffffffffffffffffffffffffffffffffffffff1673ffffffffffffffffffffffffffffffffffffffff168152602001908152602001600020541461107c57600080fd5b6000611087826115c4565b90506064818161109357fe5b06810390506110a2828261166c565b5050565b60046020528060005260406000206000915054906101000a900473ffffffffffffffffffffffffffffffffffffffff1681565b6000600860009054906101000a900473ffffffffffffffffffffffffffffffffffffffff1673ffffffffffffffffffffffffffffffffffffffff16639b0c52f8836040518263ffffffff1660e01b8152600401808281526020019150506101006040518083038186803b15801561114f57600080fd5b505afa158015611163573d6000803e3d6000fd5b505050506040513d61010081101561117a57600080fd5b81019080805190602001909291908051906020019092919080519060200190929190805190602001909291908051906020019092919080519060200190929190805190602001909291908051906020019092919050505090919293949596509091929394955090919293945090919293509091925090915090508091505061123883826040518060400160405280600981526020017f5265736f7572636573000000000000000000000000000000000000000000000081525061138e565b505050565b6000809054906101000a900473ffffffffffffffffffffffffffffffffffffffff1673ffffffffffffffffffffffffffffffffffffffff163373ffffffffffffffffffffffffffffffffffffffff161461129657600080fd5b600073ffffffffffffffffffffffffffffffffffffffff168173ffffffffffffffffffffffffffffffffffffffff1614156112d057600080fd5b8073ffffffffffffffffffffffffffffffffffffffff166000809054906101000a900473ffffffffffffffffffffffffffffffffffffffff1673ffffffffffffffffffffffffffffffffffffffff167f8be0079c531659141344cd1fd0a4f28419497f9722a3daafe3b4186f6b6457e060405160405180910390a3806000806101000a81548173ffffffffffffffffffffffffffffffffffffffff021916908373ffffffffffffffffffffffffffffffffffffffff16021790555050565b826004600082815260200190815260200160002060009054906101000a900473ffffffffffffffffffffffffffffffffffffffff1673ffffffffffffffffffffffffffffffffffffffff163373ffffffffffffffffffffffffffffffffffffffff16146113fa57600080fd5b60006006858154811061140957fe5b90600052602060002090600b0201905061142281611974565b61142b57600080fd5b600254848161143657fe5b505060006002858360010154018161144a57fe5b0490506040516020018080602001828103825260098152602001807f5265736f7572636573000000000000000000000000000000000000000000000081525060200191505060405160208183030381529060405280519060200120846040516020018080602001828103825283818151815260200191508051906020019080838360005b838110156114e95780820151818401526020810190506114ce565b50505050905090810190601f1680156115165780820380516001836020036101000a031916815260200191505b509250505060405160208183030381529060405280519060200120141561154a5760636064828161154357fe5b0682030190505b6115896040518060400160405280600681526020017f4e6f4e616d6500000000000000000000000000000000000000000000000000008152508261166c565b6115928261159a565b505050505050565b60035442018160040160046101000a81548163ffffffff021916908363ffffffff16021790555050565b600080826040516020018080602001828103825283818151815260200191508051906020019080838360005b8381101561160b5780820151818401526020810190506115f0565b50505050905090810190601f1680156116385780820380516001836020036101000a031916815260200191505b50925050506040516020818303038152906040528051906020012060001c9050600254818161166357fe5b06915050919050565b600060016006604051806101a00160405280868152602001858152602001600163ffffffff16815260200160035442018152602001600061ffff168152602001600061ffff168152602001600063ffffffff168152602001600081526020016000815260200160008152602001600081526020016000815260200160108152509080600181540180825580915050906001820390600052602060002090600b0201600090919290919091506000820151816000019080519060200190611733929190611a1b565b506020820151816001015560408201518160020160006101000a81548163ffffffff021916908363ffffffff1602179055506060820151816003015560808201518160040160006101000a81548161ffff021916908361ffff16021790555060a08201518160040160026101000a81548161ffff021916908361ffff16021790555060c08201518160040160046101000a81548163ffffffff021916908363ffffffff16021790555060e08201518160050155610100820151816006015561012082015181600701556101408201518160080155610160820151816009015561018082015181600a01555050019050336004600083815260200190815260200160002060006101000a81548173ffffffffffffffffffffffffffffffffffffffff021916908373ffffffffffffffffffffffffffffffffffffffff160217905550600560003373ffffffffffffffffffffffffffffffffffffffff1673ffffffffffffffffffffffffffffffffffffffff168152602001908152602001600020600081548092919060010191905055507f02d5215bb71349eb338f5113a0f6362972d5ccb5a88ab2e3b3971b993118fdc98184846040518084815260200180602001838152602001828103825284818151815260200191508051906020019080838360005b83811015611933578082015181840152602081019050611918565b50505050905090810190601f1680156119605780820380516001836020036101000a031916815260200191505b5094505050505060405180910390a1505050565b6000428260040160049054906101000a900463ffffffff1663ffffffff1611159050919050565b828054600181600116156101000203166002900490600052602060002090601f016020900481019282601f106119dc57803560ff1916838001178555611a0a565b82800160010185558215611a0a579182015b82811115611a095782358255916020019190600101906119ee565b5b509050611a179190611a9b565b5090565b828054600181600116156101000203166002900490600052602060002090601f016020900481019282601f10611a5c57805160ff1916838001178555611a8a565b82800160010185558215611a8a579182015b82811115611a89578251825591602001919060010190611a6e565b5b509050611a979190611a9b565b5090565b611abd91905b80821115611ab9576000816000905550600101611aa1565b5090565b9056fea265627a7a723158202a0605b95b2116d51a645f4fcf643e136e673b8973db68ea43aa7ecae7d929c864736f6c63430005100032",
  "source": "// solium-disable linebreak-style\r\npragma solidity >=0.4.21 <0.6.6;\r\n\r\n\r\nimport \"../node_modules/@openzeppelin/contracts/token/ERC721/ERC721.sol\";\r\nimport \"../node_modules/@openzeppelin/contracts/math/SafeMath.sol\";\r\n\r\n\r\n\r\n\r\n\r\n\r\n\r\n\r\n\r\n\r\n/**\r\n * @title Ownable\r\n * @dev The Ownable contract has an owner address, and provides basic authorization control\r\n * functions, this simplifies the implementation of \"user permissions\".\r\n */\r\ncontract Ownable {\r\n  address  public owner;\r\n\r\n  event OwnershipTransferred(address indexed previousOwner, address indexed newOwner);\r\n\r\n  /**\r\n   * @dev The Ownable constructor sets the original `owner` of the contract to the sender\r\n   * account.\r\n   */\r\n  constructor () public {\r\n    owner  = msg.sender;\r\n  }\r\n\r\n\r\n  modifier onlyOwner() {\r\n    require(msg.sender == owner);\r\n    _;\r\n  }\r\n\r\n\r\n  /**\r\n   * @dev Allows the current owner to transfer control of the contract to a newOwner.\r\n   * @param newOwner The address to transfer ownership to.\r\n   */\r\n  function transferOwnership(address payable newOwner) public onlyOwner {\r\n    require(newOwner != address(0));\r\n    emit OwnershipTransferred(owner, newOwner);\r\n    owner = newOwner;\r\n  }\r\n\r\n}\r\n\r\n\r\n\r\n contract Sample is Ownable  {\r\n\r\nevent NewResource (uint resourceId, string name , uint quality);\r\n\r\nuint qualityUnits = 16;\r\nuint qualityModulo = qualityUnits;\r\nuint cooldownTime = 1 days;\r\n\r\n\r\n\r\n\r\nstruct Resource {\r\n    string name;\r\n    uint quality;\r\n    uint32 rarity;\r\n    uint256 cooldownTime;\r\n    uint16 stockGain;\r\n    uint16 stockLoss;\r\n    uint32 readyTime;\r\n    uint256 extractionTime;\r\n    uint256 extractionId;\r\n    uint256 magnetiteId;\r\n    uint256 hematiteId;\r\n    uint256 class;\r\n    //uint256 sediments;\r\n    uint qualityUnits;\r\n\r\n    }\r\n\r\n\r\n\r\n//mapping address and apply stocks\r\n    mapping (uint => address) public resourceToOwner;\r\n    mapping (address => uint) ownerResourceGain;\r\n    Resource[] public resources;\r\n    //mapping(uint256 => Resource) resources[];\r\n\r\n\r\n/// @dev function to crack the resource stacks\r\nfunction _createResource (string memory _name , uint _quality) internal {\r\n    uint id = resources.push(Resource(_name,_quality ,1 , uint256( now + cooldownTime), 0 , 0, 0,\r\n    0, 0, 0, 0, 0, 16) )+1;\r\n    resourceToOwner[id] = msg.sender;\r\n    ownerResourceGain[msg.sender]++;\r\n    emit NewResource(id, _name , _quality);\r\n    }\r\n\r\n    //function to generate rand stats for resources\r\n    function _generateRandomQuality(string memory _str ) private view returns (uint) {\r\n        uint rand = uint(keccak256(abi.encode(_str)));\r\n        return rand % qualityModulo;\r\n    }\r\n\r\n    //function to generate the resource stacks\r\n\r\n    function createResourceStack(string memory _name) public {\r\n    require(ownerResourceGain[msg.sender] ==0);\r\n    uint randomQuality = _generateRandomQuality(_name);\r\n    randomQuality = randomQuality - randomQuality % 100;\r\n    _createResource(_name, randomQuality);\r\n        \r\n\r\n\r\n\r\n        \r\n    }\r\n\r\n\r\n}\r\n\r\n\r\n\r\n\r\ncontract CoreRefined is Sample {\r\n\r\n    \r\n    address public newContractAddress;\r\n\r\n    function getResourcesStats(uint256 _id)\r\n        external\r\n        view\r\n        returns (\r\n        bool isRefiningInProcess,\r\n        bool isReady,\r\n        uint256 cooldownTime,\r\n        //uint256 nextActionAt,\r\n        uint256 extractionTime,\r\n        uint256 extractionId,\r\n        uint256 magnetiteId,\r\n        uint256 hematiteId,\r\n        uint256 class\r\n        //uint256 sediments\r\n    ) \r\n    \r\n    \r\n    {\r\n        \r\n        Resource storage stats = resources[_id];\r\n        isRefiningInProcess = (stats.quality != 0);\r\n        isReady = (stats.cooldownTime <= block.number);\r\n        cooldownTime = uint256(stats.cooldownTime);\r\n        extractionTime = uint256(stats.extractionTime);\r\n        extractionId = uint256(stats.extractionId);\r\n        magnetiteId = uint256(stats.magnetiteId);\r\n        hematiteId = uint256(stats.hematiteId);\r\n        class = uint256(stats.class);\r\n        //sediments = stats.sediments;\r\n    }\r\n\r\n}\r\n\r\n\r\n\r\n\r\n/// @title RefiningInterface for resource modification called refining\r\n/// @dev Refining function inside for improving stats of resources.\r\ncontract RefiningInterface is Sample {\r\n    function refining(uint256 _id) external view returns (\r\n        bool isRefiningInProcess,\r\n        bool isReady,\r\n        uint256 cooldownTime,\r\n        uint256 nextActionsAt,\r\n        uint256 extractionTime,\r\n        uint256 extractionId,\r\n        uint256 magnetiteId,\r\n        uint256 hematiteId,\r\n        uint256 class\r\n        //uint256 sediments\r\n    );\r\n}\r\ncontract ResourceRefined is Sample , CoreRefined {\r\n    ResourceRefined CoreRefinedContract;\r\n\r\n    modifier onlyOwnerOf(uint _resourceId) {\r\n        require(msg.sender == resourceToOwner[_resourceId]);\r\n        _;\r\n    }\r\n\r\n\r\n\r\n    function SetAnotherContractAddress (address _address) external onlyOwner {\r\n        CoreRefinedContract\r\n = ResourceRefined(_address);\r\n    }\r\n\r\n    function triggerCooldown (Resource storage _resource ) internal {\r\n        _resource.readyTime = uint32(now+cooldownTime);\r\n\r\n    }\r\n\r\n    function _isReady ( Resource storage _resource ) internal view returns (bool) {\r\n    return (_resource.readyTime <= now);\r\n    }\r\n\r\n\r\n        function refinedAndMultiply( uint _resourceId, uint _targetQuality, string memory _types) internal onlyOwnerOf(_resourceId) {\r\n        Resource storage myResource = resources[_resourceId];\r\n        require(_isReady(myResource));\r\n        _targetQuality % qualityModulo;\r\n        uint newQuality = (myResource.quality + _targetQuality) / 2;\r\n        if(keccak256(abi.encode((_types))) == keccak256(abi.encode(\"Resources\"))) {\r\n            newQuality = newQuality - newQuality % 100 + 99;\r\n    }\r\n    _createResource(\"NoName\", newQuality);\r\n    triggerCooldown(myResource);\r\n    }\r\n\r\n\r\n    function refineOnInterface(uint256 _resourceId, uint256 _idResources ) public {\r\n    uint256 materialUsed;\r\n    (,,,,,,,materialUsed) = CoreRefinedContract.getResourcesStats(_idResources);\r\n    refinedAndMultiply(_resourceId,materialUsed,\"Resources\");\r\n\r\n    \r\n    }\r\n\r\n\r\n\r\n\r\n\r\n}\r\n\r\n\r\n\r\n\r\n\r\n\r\n\r\ncontract  ResourceHelper is ResourceRefined {\r\n    //cost ether for rarityUp fee\r\nuint rarityForFee = 0.000000000001 ether;\r\n\r\n    //modify rarity !=not LEVEL\r\n    modifier aboveCostLevel (uint _rarity ,uint _resourceId){\r\n        require(resources[_resourceId].rarity >= _rarity);\r\n        _;\r\n    }\r\n\r\n\r\n    //function to withdraw FIX ISSUE\r\n    /*function withdraw() external onlyOwner {\r\n        owner.transfer(this).balance;\r\n    }*/\r\n\r\n    //rarityfee for resources improvements\r\n    function setRarityFee(uint _fee) external onlyOwner {\r\n        rarityForFee = _fee;\r\n    }\r\n\r\n    //Rarity improvement function\r\n    /// @dev this function is set by using RefinedResource.sol contract in order to gain better resources\r\n\r\n    function rarityUp(uint _resourceId) external payable {\r\n        require(msg.value == rarityForFee);\r\n        resources[_resourceId].rarity++;\r\n        }\r\n\r\n        //change the name of resources\r\n\r\n    function changeName(uint _resourceId, string calldata   _Newname) external aboveCostLevel(2, _resourceId) onlyOwnerOf (_resourceId){\r\n        resources[_resourceId].name = _Newname;\r\n        \r\n    }\r\n\r\n    //change the qualityUnits\r\n    function changeQualityUnits(uint _resourceId, uint _newQualityUnits) external aboveCostLevel(2, _resourceId) onlyOwnerOf (_resourceId) {\r\n                resources[_resourceId].qualityUnits = _newQualityUnits;\r\n\r\n    }\r\n\r\n    //grabe the resources ! array of it.\r\n\r\n    function getTheResourceToOwner( address _owner) external view returns (uint[] memory) {\r\n        uint[] memory result = new uint[](ownerResourceGain[_owner]);\r\n        uint counter = 0;\r\n\r\n        //loop\r\n        for (uint i = 0; i < resources.length; i++) {\r\n            if (resourceToOwner[i] == _owner){\r\n                result[counter] = i;\r\n                counter++;\r\n            }\r\n\r\n            \r\n        }\r\n        return result;\r\n\r\n    }\r\n}\r\n\r\n\r\ncontract ResourceUp is ResourceHelper {\r\nuint randNonce = 0;\r\nuint resourceUpProba = 70;\r\n\r\n\r\n/*function randMod(uint _modulus) internal returns(uint) {\r\n    randNonce++;\r\n    return uint(keccak256( (abi.encodePacked(now, msg.sender,randNonce))) % uint(_modulus));\r\n}*/\r\n\r\nfunction setUp(uint _resourceId, uint _targetId) external onlyOwnerOf(_resourceId) {\r\n    Resource storage myResource = resources[_resourceId];\r\n    Resource storage anotherResource = resources[_targetId];\r\n    uint rand = 100;\r\n    if (rand <= resourceUpProba) {\r\n    myResource.stockGain++;\r\n    myResource.rarity++;\r\n    anotherResource.stockLoss++;\r\n    refinedAndMultiply(_resourceId, anotherResource.quality, \"resource\");\r\n    } else {\r\n    myResource.stockLoss++;\r\n    anotherResource.stockGain++;\r\n    triggerCooldown(myResource);\r\n        }\r\n    }\r\n}\r\n\r\n\r\n\r\ncontract Harvest is  ResourceUp, ERC721 {\r\n\r\n    using SafeMath for uint256;\r\n\r\nmapping (uint => address) resourceApproval;\r\n\r\n    function balanceOf(address _owner) public view returns (uint256 _balance) {\r\n    return ownerResourceGain[_owner];\r\n    }\r\n\r\n    function ownerOf(uint256 _tokenId) public view returns (address _owner) {\r\n        return resourceToOwner[_tokenId];\r\n    }\r\n\r\n    function _transfer(address _from, address _to, uint256 _tokenId) private {\r\n        ownerResourceGain[_to] = ownerResourceGain[_to].add(1);\r\n        ownerResourceGain[msg.sender] = ownerResourceGain[msg.sender].sub(1);\r\n        resourceToOwner[_tokenId] = _to;\r\n        _transfer(_from, _to, _tokenId);\r\n    }\r\n\r\n    function transferTo(address _to, uint256 _tokenId) public onlyOwnerOf(_tokenId) {\r\n        transferTo(_to, _tokenId);\r\n        \r\n    }\r\n\r\n    function approve(address _to, uint256 _tokenId) public onlyOwnerOf(_tokenId) {\r\n        resourceApproval[_tokenId] = _to;\r\n        emit Approval(msg.sender, _to, _tokenId);\r\n    }\r\n\r\n    function harvest(uint256 _tokenId) public {\r\n        require(resourceApproval[_tokenId] == msg.sender);\r\n        address owner = ownerOf(_tokenId);\r\n        _transfer(owner, msg.sender, _tokenId);\r\n    }\r\n\r\n\r\n\r\n}\r\n\r\n\r\n\r\n\r\n\r\n\r\n\r\n\r\n",
  "sourcePath": "C:\\Users\\Rahma John\\Documents\\dev\\CraftingChain-\\contracts\\Harvest.sol",
  "compiler": {
    "name": "solc",
    "version": "0.5.16+commit.9c3226ce.Emscripten.clang"
  },
  "schemaVersion": "3.0.23",
  "updatedAt": "2020-04-09T19:51:23.893Z",
  "devdoc": {
    "methods": {
      "rarityUp(uint256)": {
        "details": "this function is set by using RefinedResource.sol contract in order to gain better resources"
      },
      "transferOwnership(address)": {
        "details": "Allows the current owner to transfer control of the contract to a newOwner.",
        "params": {
          "newOwner": "The address to transfer ownership to."
        }
      }
    }
  },
  "userdoc": {
    "methods": {}
  }
}