{
  "contractName": "ResourceRefined",
  "abi": [
    {
      "anonymous": false,
      "inputs": [
        {
          "indexed": false,
          "internalType": "uint256",
          "name": "resourceId",
          "type": "uint256"
        },
        {
          "indexed": false,
          "internalType": "string",
          "name": "name",
          "type": "string"
        },
        {
          "indexed": false,
          "internalType": "uint256",
          "name": "quality",
          "type": "uint256"
        }
      ],
      "name": "NewResource",
      "type": "event"
    },
    {
      "anonymous": false,
      "inputs": [
        {
          "indexed": true,
          "internalType": "address",
          "name": "previousOwner",
          "type": "address"
        },
        {
          "indexed": true,
          "internalType": "address",
          "name": "newOwner",
          "type": "address"
        }
      ],
      "name": "OwnershipTransferred",
      "type": "event"
    },
    {
      "constant": false,
      "inputs": [
        {
          "internalType": "string",
          "name": "_name",
          "type": "string"
        }
      ],
      "name": "createResourceStack",
      "outputs": [],
      "payable": false,
      "stateMutability": "nonpayable",
      "type": "function"
    },
    {
      "constant": true,
      "inputs": [
        {
          "internalType": "uint256",
          "name": "_id",
          "type": "uint256"
        }
      ],
      "name": "getResourcesStats",
      "outputs": [
        {
          "internalType": "bool",
          "name": "isRefiningInProcess",
          "type": "bool"
        },
        {
          "internalType": "bool",
          "name": "isReady",
          "type": "bool"
        },
        {
          "internalType": "uint256",
          "name": "cooldownTime",
          "type": "uint256"
        },
        {
          "internalType": "uint256",
          "name": "extractionTime",
          "type": "uint256"
        },
        {
          "internalType": "uint256",
          "name": "extractionId",
          "type": "uint256"
        },
        {
          "internalType": "uint256",
          "name": "magnetiteId",
          "type": "uint256"
        },
        {
          "internalType": "uint256",
          "name": "hematiteId",
          "type": "uint256"
        },
        {
          "internalType": "uint256",
          "name": "class",
          "type": "uint256"
        }
      ],
      "payable": false,
      "stateMutability": "view",
      "type": "function"
    },
    {
      "constant": true,
      "inputs": [],
      "name": "owner",
      "outputs": [
        {
          "internalType": "address",
          "name": "",
          "type": "address"
        }
      ],
      "payable": false,
      "stateMutability": "view",
      "type": "function"
    },
    {
      "constant": true,
      "inputs": [
        {
          "internalType": "uint256",
          "name": "",
          "type": "uint256"
        }
      ],
      "name": "resourceToOwner",
      "outputs": [
        {
          "internalType": "address",
          "name": "",
          "type": "address"
        }
      ],
      "payable": false,
      "stateMutability": "view",
      "type": "function"
    },
    {
      "constant": true,
      "inputs": [
        {
          "internalType": "uint256",
          "name": "",
          "type": "uint256"
        }
      ],
      "name": "resources",
      "outputs": [
        {
          "internalType": "string",
          "name": "name",
          "type": "string"
        },
        {
          "internalType": "uint256",
          "name": "quality",
          "type": "uint256"
        },
        {
          "internalType": "uint32",
          "name": "rarity",
          "type": "uint32"
        },
        {
          "internalType": "uint256",
          "name": "cooldownTime",
          "type": "uint256"
        },
        {
          "internalType": "uint16",
          "name": "stockGain",
          "type": "uint16"
        },
        {
          "internalType": "uint16",
          "name": "stockLoss",
          "type": "uint16"
        },
        {
          "internalType": "uint32",
          "name": "readyTime",
          "type": "uint32"
        },
        {
          "internalType": "uint256",
          "name": "extractionTime",
          "type": "uint256"
        },
        {
          "internalType": "uint256",
          "name": "extractionId",
          "type": "uint256"
        },
        {
          "internalType": "uint256",
          "name": "magnetiteId",
          "type": "uint256"
        },
        {
          "internalType": "uint256",
          "name": "hematiteId",
          "type": "uint256"
        },
        {
          "internalType": "uint256",
          "name": "class",
          "type": "uint256"
        },
        {
          "internalType": "uint256",
          "name": "qualityUnits",
          "type": "uint256"
        }
      ],
      "payable": false,
      "stateMutability": "view",
      "type": "function"
    },
    {
      "constant": false,
      "inputs": [
        {
          "internalType": "address",
          "name": "newOwner",
          "type": "address"
        }
      ],
      "name": "transferOwnership",
      "outputs": [],
      "payable": false,
      "stateMutability": "nonpayable",
      "type": "function"
    },
    {
      "constant": false,
      "inputs": [
        {
          "internalType": "address",
          "name": "_address",
          "type": "address"
        }
      ],
      "name": "SetAnotherContractAddress",
      "outputs": [],
      "payable": false,
      "stateMutability": "nonpayable",
      "type": "function"
    },
    {
      "constant": false,
      "inputs": [
        {
          "internalType": "uint256",
          "name": "_resourceId",
          "type": "uint256"
        },
        {
          "internalType": "uint256",
          "name": "_idResources",
          "type": "uint256"
        }
      ],
      "name": "refineOnInterface",
      "outputs": [],
      "payable": false,
      "stateMutability": "nonpayable",
      "type": "function"
    }
  ],
  "bytecode": "0x6080604052601060015560015460025562015180600355336000806101000a81548173ffffffffffffffffffffffffffffffffffffffff021916908373ffffffffffffffffffffffffffffffffffffffff160217905550611122806100656000396000f3fe608060405234801561001057600080fd5b50600436106100885760003560e01c8063cfad4b911161005b578063cfad4b91146102b9578063dd275e4e14610374578063e4416849146103e2578063f2fde38b1461041a57610088565b8063244d6daa1461008d5780636518362c146101b05780638da5cb5b146101f45780639b0c52f81461023e575b600080fd5b6100b9600480360360208110156100a357600080fd5b810190808035906020019092919050505061045e565b60405180806020018e81526020018d63ffffffff1663ffffffff1681526020018c81526020018b61ffff1661ffff1681526020018a61ffff1661ffff1681526020018963ffffffff1663ffffffff16815260200188815260200187815260200186815260200185815260200184815260200183815260200182810382528f818151815260200191508051906020019080838360005b8381101561016957808201518184015260208101905061014e565b50505050905090810190601f1680156101965780820380516001836020036101000a031916815260200191505b509e50505050505050505050505050505060405180910390f35b6101f2600480360360208110156101c657600080fd5b81019080803573ffffffffffffffffffffffffffffffffffffffff1690602001909291905050506105a5565b005b6101fc610642565b604051808273ffffffffffffffffffffffffffffffffffffffff1673ffffffffffffffffffffffffffffffffffffffff16815260200191505060405180910390f35b61026a6004803603602081101561025457600080fd5b8101908080359060200190929190505050610667565b6040518089151515158152602001881515151581526020018781526020018681526020018581526020018481526020018381526020018281526020019850505050505050505060405180910390f35b610372600480360360208110156102cf57600080fd5b81019080803590602001906401000000008111156102ec57600080fd5b8201836020820111156102fe57600080fd5b8035906020019184600183028401116401000000008311171561032057600080fd5b91908080601f016020809104026020016040519081016040528093929190818152602001838380828437600081840152601f19601f8201169050808301925050505050505091929192905050506106dd565b005b6103a06004803603602081101561038a57600080fd5b8101908080359060200190929190505050610753565b604051808273ffffffffffffffffffffffffffffffffffffffff1673ffffffffffffffffffffffffffffffffffffffff16815260200191505060405180910390f35b610418600480360360408110156103f857600080fd5b810190808035906020019092919080359060200190929190505050610786565b005b61045c6004803603602081101561043057600080fd5b81019080803573ffffffffffffffffffffffffffffffffffffffff1690602001909291905050506108ea565b005b6006818154811061046b57fe5b90600052602060002090600b0201600091509050806000018054600181600116156101000203166002900480601f0160208091040260200160405190810160405280929190818152602001828054600181600116156101000203166002900480156105175780601f106104ec57610100808354040283529160200191610517565b820191906000526020600020905b8154815290600101906020018083116104fa57829003601f168201915b5050505050908060010154908060020160009054906101000a900463ffffffff16908060030154908060040160009054906101000a900461ffff16908060040160029054906101000a900461ffff16908060040160049054906101000a900463ffffffff169080600501549080600601549080600701549080600801549080600901549080600a015490508d565b6000809054906101000a900473ffffffffffffffffffffffffffffffffffffffff1673ffffffffffffffffffffffffffffffffffffffff163373ffffffffffffffffffffffffffffffffffffffff16146105fe57600080fd5b80600760006101000a81548173ffffffffffffffffffffffffffffffffffffffff021916908373ffffffffffffffffffffffffffffffffffffffff16021790555050565b6000809054906101000a900473ffffffffffffffffffffffffffffffffffffffff1681565b600080600080600080600080600060068a8154811061068257fe5b90600052602060002090600b0201905060008160010154141598504381600301541115975080600301549650806005015495508060060154945080600701549350806008015492508060090154915050919395975091939597565b6000600560003373ffffffffffffffffffffffffffffffffffffffff1673ffffffffffffffffffffffffffffffffffffffff168152602001908152602001600020541461072957600080fd5b600061073482610a3b565b90506064818161074057fe5b068103905061074f8282610ae3565b5050565b60046020528060005260406000206000915054906101000a900473ffffffffffffffffffffffffffffffffffffffff1681565b6000600760009054906101000a900473ffffffffffffffffffffffffffffffffffffffff1673ffffffffffffffffffffffffffffffffffffffff16639b0c52f8836040518263ffffffff1660e01b8152600401808281526020019150506101006040518083038186803b1580156107fc57600080fd5b505afa158015610810573d6000803e3d6000fd5b505050506040513d61010081101561082757600080fd5b8101908080519060200190929190805190602001909291908051906020019092919080519060200190929190805190602001909291908051906020019092919080519060200190929190805190602001909291905050509091929394959650909192939495509091929394509091929350909192509091509050809150506108e583826040518060400160405280600981526020017f5265736f75726365730000000000000000000000000000000000000000000000815250610deb565b505050565b6000809054906101000a900473ffffffffffffffffffffffffffffffffffffffff1673ffffffffffffffffffffffffffffffffffffffff163373ffffffffffffffffffffffffffffffffffffffff161461094357600080fd5b600073ffffffffffffffffffffffffffffffffffffffff168173ffffffffffffffffffffffffffffffffffffffff16141561097d57600080fd5b8073ffffffffffffffffffffffffffffffffffffffff166000809054906101000a900473ffffffffffffffffffffffffffffffffffffffff1673ffffffffffffffffffffffffffffffffffffffff167f8be0079c531659141344cd1fd0a4f28419497f9722a3daafe3b4186f6b6457e060405160405180910390a3806000806101000a81548173ffffffffffffffffffffffffffffffffffffffff021916908373ffffffffffffffffffffffffffffffffffffffff16021790555050565b600080826040516020018080602001828103825283818151815260200191508051906020019080838360005b83811015610a82578082015181840152602081019050610a67565b50505050905090810190601f168015610aaf5780820380516001836020036101000a031916815260200191505b50925050506040516020818303038152906040528051906020012060001c90506002548181610ada57fe5b06915050919050565b600060016006604051806101a00160405280868152602001858152602001600163ffffffff16815260200160035442018152602001600061ffff168152602001600061ffff168152602001600063ffffffff168152602001600081526020016000815260200160008152602001600081526020016000815260200160108152509080600181540180825580915050906001820390600052602060002090600b0201600090919290919091506000820151816000019080519060200190610baa929190611048565b506020820151816001015560408201518160020160006101000a81548163ffffffff021916908363ffffffff1602179055506060820151816003015560808201518160040160006101000a81548161ffff021916908361ffff16021790555060a08201518160040160026101000a81548161ffff021916908361ffff16021790555060c08201518160040160046101000a81548163ffffffff021916908363ffffffff16021790555060e08201518160050155610100820151816006015561012082015181600701556101408201518160080155610160820151816009015561018082015181600a01555050019050336004600083815260200190815260200160002060006101000a81548173ffffffffffffffffffffffffffffffffffffffff021916908373ffffffffffffffffffffffffffffffffffffffff160217905550600560003373ffffffffffffffffffffffffffffffffffffffff1673ffffffffffffffffffffffffffffffffffffffff168152602001908152602001600020600081548092919060010191905055507f02d5215bb71349eb338f5113a0f6362972d5ccb5a88ab2e3b3971b993118fdc98184846040518084815260200180602001838152602001828103825284818151815260200191508051906020019080838360005b83811015610daa578082015181840152602081019050610d8f565b50505050905090810190601f168015610dd75780820380516001836020036101000a031916815260200191505b5094505050505060405180910390a1505050565b826004600082815260200190815260200160002060009054906101000a900473ffffffffffffffffffffffffffffffffffffffff1673ffffffffffffffffffffffffffffffffffffffff163373ffffffffffffffffffffffffffffffffffffffff1614610e5757600080fd5b600060068581548110610e6657fe5b90600052602060002090600b02019050610e7f81610ff7565b610e8857600080fd5b6002548481610e9357fe5b5050600060028583600101540181610ea757fe5b0490506040516020018080602001828103825260098152602001807f5265736f7572636573000000000000000000000000000000000000000000000081525060200191505060405160208183030381529060405280519060200120846040516020018080602001828103825283818151815260200191508051906020019080838360005b83811015610f46578082015181840152602081019050610f2b565b50505050905090810190601f168015610f735780820380516001836020036101000a031916815260200191505b5092505050604051602081830303815290604052805190602001201415610fa757606360648281610fa057fe5b0682030190505b610fe66040518060400160405280600681526020017f4e6f4e616d65000000000000000000000000000000000000000000000000000081525082610ae3565b610fef8261101e565b505050505050565b6000428260040160049054906101000a900463ffffffff1663ffffffff1611159050919050565b60035442018160040160046101000a81548163ffffffff021916908363ffffffff16021790555050565b828054600181600116156101000203166002900490600052602060002090601f016020900481019282601f1061108957805160ff19168380011785556110b7565b828001600101855582156110b7579182015b828111156110b657825182559160200191906001019061109b565b5b5090506110c491906110c8565b5090565b6110ea91905b808211156110e65760008160009055506001016110ce565b5090565b9056fea265627a7a7231582023abfc0cc8a67ee139f32be3b0e5ad8fbf7a6efa11ab27c6be07fd6d475c0d8b64736f6c63430005100032",
  "source": "// solium-disable linebreak-style\npragma solidity >=0.4.21 <0.6.6;\n\n\nimport \"../node_modules/@openzeppelin/contracts/token/ERC721/ERC721.sol\";\nimport \"../node_modules/@openzeppelin/contracts/math/SafeMath.sol\";\n\n\n\n\n\n\n\n\n\n\n/**\n * @title Ownable\n * @dev The Ownable contract has an owner address, and provides basic authorization control\n * functions, this simplifies the implementation of \"user permissions\".\n */\ncontract Ownable {\n  address  public owner;\n\n  event OwnershipTransferred(address indexed previousOwner, address indexed newOwner);\n\n  /**\n   * @dev The Ownable constructor sets the original `owner` of the contract to the sender\n   * account.\n   */\n  constructor () public {\n    owner  = msg.sender;\n  }\n\n\n  modifier onlyOwner() {\n    require(msg.sender == owner);\n    _;\n  }\n\n\n  /**\n   * @dev Allows the current owner to transfer control of the contract to a newOwner.\n   * @param newOwner The address to transfer ownership to.\n   */\n  function transferOwnership(address newOwner) public onlyOwner {\n    require(newOwner != address(0));\n    emit OwnershipTransferred(owner, newOwner);\n    owner = newOwner;\n  }\n\n}\n\n\n\n contract Sample is Ownable  {\n\nevent NewResource (uint resourceId, string name , uint quality);\n\nuint qualityUnits = 16;\nuint qualityModulo = qualityUnits;\nuint cooldownTime = 1 days;\n\n\n\n\nstruct Resource {\n    string name;\n    uint quality;\n    uint32 rarity;\n    uint256 cooldownTime;\n    uint16 stockGain;\n    uint16 stockLoss;\n    uint32 readyTime;\n    uint256 extractionTime;\n    uint256 extractionId;\n    uint256 magnetiteId;\n    uint256 hematiteId;\n    uint256 class;\n    //uint256 sediments;\n    uint qualityUnits;\n\n    }\n\n\n\n//mapping address and apply stocks\n    mapping (uint => address) public resourceToOwner;\n    mapping (address => uint) ownerResourceGain;\n    Resource[] public resources;\n    //mapping(uint256 => Resource) resources[];\n\n\n/// @dev function to crack the resource stacks\nfunction _createResource (string memory _name , uint _quality) internal {\n    uint id = resources.push(Resource(_name,_quality ,1 , uint256( now + cooldownTime), 0 , 0, 0,\n    0, 0, 0, 0, 0, 16) )+1;\n    resourceToOwner[id] = msg.sender;\n    ownerResourceGain[msg.sender]++;\n    emit NewResource(id, _name , _quality);\n    }\n\n    //function to generate rand stats for resources\n    function _generateRandomQuality(string memory _str ) private view returns (uint) {\n        uint rand = uint(keccak256(abi.encode(_str)));\n        return rand % qualityModulo;\n    }\n\n    //function to generate the resource stacks\n\n    function createResourceStack(string memory _name) public {\n    require(ownerResourceGain[msg.sender] ==0);\n    uint randomQuality = _generateRandomQuality(_name);\n    randomQuality = randomQuality - randomQuality % 100;\n    _createResource(_name, randomQuality);\n        \n\n\n\n        \n    }\n\n\n}\n\n\n\n\ncontract CoreRefined is Sample {\n\n    \n   \n    //address ckAddress = 0xe5F977686C4857f370F919858B1F720FA8e9EDe6\n    //RefinOnterface Newcontract = RefinOnterface(ckAddress);\n\n\n\n    function getResourcesStats(uint256 _id)\n        external\n        view\n        returns (\n        bool isRefiningInProcess,\n        bool isReady,\n        uint256 cooldownTime,\n        //uint256 nextActionAt,\n        uint256 extractionTime,\n        uint256 extractionId,\n        uint256 magnetiteId,\n        uint256 hematiteId,\n        uint256 class\n        //uint256 sediments\n    ) \n    \n    \n    {\n        \n        Resource storage stats = resources[_id];\n        isRefiningInProcess = (stats.quality != 0);\n        isReady = (stats.cooldownTime <= block.number);\n        cooldownTime = uint256(stats.cooldownTime);\n        extractionTime = uint256(stats.extractionTime);\n        extractionId = uint256(stats.extractionId);\n        magnetiteId = uint256(stats.magnetiteId);\n        hematiteId = uint256(stats.hematiteId);\n        class = uint256(stats.class);\n        //sediments = stats.sediments;\n    }\n\n}\n\n\n\n\n/// @title RefiningInterface for resource modification called refining\n/// @dev Refining function inside for improving stats of resources.\ncontract RefiningInterface is Sample {\n    function refining(uint256 _id) external view returns (\n        bool isRefiningInProcess,\n        bool isReady,\n        uint256 cooldownTime,\n        uint256 nextActionsAt,\n        uint256 extractionTime,\n        uint256 extractionId,\n        uint256 magnetiteId,\n        uint256 hematiteId,\n        uint256 class\n        //uint256 sediments\n    );\n}\ncontract ResourceRefined is Sample , CoreRefined {\n    ResourceRefined CoreRefinedContract;\n\n    modifier onlyOwnerOf(uint _resourceId) {\n        require(msg.sender == resourceToOwner[_resourceId]);\n        _;\n    }\n\n\n\n    function SetAnotherContractAddress (address _address) external onlyOwner {\n        CoreRefinedContract\n = ResourceRefined(_address);\n    }\n\n    function triggerCooldown (Resource storage _resource ) internal {\n        _resource.readyTime = uint32(now+cooldownTime);\n\n    }\n\n    function _isReady ( Resource storage _resource ) internal view returns (bool) {\n    return (_resource.readyTime <= now);\n    }\n\n\n        function refinedAndMultiply( uint _resourceId, uint _targetQuality, string memory _types) internal onlyOwnerOf(_resourceId) {\n        Resource storage myResource = resources[_resourceId];\n        require(_isReady(myResource));\n        _targetQuality % qualityModulo;\n        uint newQuality = (myResource.quality + _targetQuality) / 2;\n        if(keccak256(abi.encode((_types))) == keccak256(abi.encode(\"Resources\"))) {\n            newQuality = newQuality - newQuality % 100 + 99;\n    }\n    _createResource(\"NoName\", newQuality);\n    triggerCooldown(myResource);\n    }\n\n\n    function refineOnInterface(uint256 _resourceId, uint256 _idResources ) public {\n    uint256 materialUsed;\n    (,,,,,,,materialUsed) = CoreRefinedContract.getResourcesStats(_idResources);\n    refinedAndMultiply(_resourceId,materialUsed,\"Resources\");\n\n    \n    }\n\n\n\n\n\n}\n\n\n\n\n\n\n\ncontract  ResourceHelper is ResourceRefined {\n    //cost ether for rarityUp fee\nuint rarityForFee = 0.0000001 ether;\n\n\n    //modify rarity !=not LEVEL\n    modifier aboveCostLevel (uint _rarity, uint _resourceId){\n        require(resources[_resourceId].rarity >= _rarity);\n        _;\n    }\n\n\n    //function to withdraw FIX ISSUE\n   modifier onlyOwner() {\n    require(msg.sender != owner);\n    _;\n  }\n\n    //rarityfee for resources improvements\n    function setRarityFee(uint _fee) external onlyOwner {\n        rarityForFee = _fee;\n    }\n\n    //Rarity improvement function\n    /// @dev this function is set by using RefinedResource.sol contract in order to gain better resources\n\n    function rarityUp(uint _resourceId) external payable {\n        require(msg.value == rarityForFee);\n        resources[_resourceId].rarity++;\n        }\n\n        //change the name of resources\n\n    function changeName(uint _resourceId, string calldata   _Newname) external aboveCostLevel(2, _resourceId) onlyOwnerOf (_resourceId){\n        resources[_resourceId].name = _Newname;\n        \n    }\n\n    //change the qualityUnits\n    function changeQualityUnits(uint _resourceId, uint _newQualityUnits) external aboveCostLevel(2, _resourceId) onlyOwnerOf (_resourceId) {\n                resources[_resourceId].qualityUnits = _newQualityUnits;\n\n    }\n\n    //grabe the resources ! array of it.\n\n    function getTheResourceToOwner( address _owner) external view returns (uint[] memory) {\n        uint[] memory result = new uint[](ownerResourceGain[_owner]);\n        uint counter = 0;\n\n        //loop\n        for (uint i = 0; i < resources.length; i++) {\n            if (resourceToOwner[i] == _owner){\n                result[counter] = i;\n                counter++;\n            }\n\n            \n        }\n        return result;\n\n    }\n}\n\n\ncontract ResourceUp is ResourceHelper {\nuint randNonce = 0;\nuint resourceUpProba = 70;\n\n\n/*function randMod(uint _modulus) internal returns(uint) {\n    randNonce++;\n    return uint(keccak256( (abi.encodePacked(now, msg.sender,randNonce))) % uint(_modulus));\n}*/\n\nfunction setUp(uint _resourceId, uint _targetId) external onlyOwnerOf(_resourceId) {\n    Resource storage myResource = resources[_resourceId];\n    Resource storage anotherResource = resources[_targetId];\n    uint rand = 100;\n    if (rand <= resourceUpProba) {\n    myResource.stockGain++;\n    myResource.rarity++;\n    anotherResource.stockLoss++;\n    refinedAndMultiply(_resourceId, anotherResource.quality, \"resource\");\n    } else {\n    myResource.stockLoss++;\n    anotherResource.stockGain++;\n    triggerCooldown(myResource);\n        }\n    }\n}\n\n\n\ncontract Harvest is  ResourceUp, ERC721 {\n\n    using SafeMath for uint256;\n\nmapping (uint => address) resourceApproval;\n\n    function balanceOf(address _owner) public view returns (uint256 _balance) {\n    return ownerResourceGain[_owner];\n    }\n\n    function ownerOf(uint256 _tokenId) public view returns (address _owner) {\n        return resourceToOwner[_tokenId];\n    }\n\n    function _transfer(address _from, address _to, uint256 _tokenId) private {\n        ownerResourceGain[_to] = ownerResourceGain[_to].add(1);\n        ownerResourceGain[msg.sender] = ownerResourceGain[msg.sender].sub(1);\n        resourceToOwner[_tokenId] = _to;\n        _transfer(_from, _to, _tokenId);\n    }\n\n    function transferTo(address _to, uint256 _tokenId) public onlyOwnerOf(_tokenId) {\n        transferTo(_to, _tokenId);\n        \n    }\n\n    function approve(address _to, uint256 _tokenId) public onlyOwnerOf(_tokenId) {\n        resourceApproval[_tokenId] = _to;\n        emit Approval(msg.sender, _to, _tokenId);\n    }\n\n    function harvest(uint256 _tokenId) public {\n        require(resourceApproval[_tokenId] == msg.sender);\n        address owner = ownerOf(_tokenId);\n        _transfer(owner, msg.sender, _tokenId);\n    }\n\n\n\n}\n\n\n\n\n\n\n\n\n",
  "sourcePath": "/home/rahma/dev/CraftingChain-/contracts/Harvest.sol",
  "compiler": {
    "name": "solc",
    "version": "0.5.16+commit.9c3226ce.Emscripten.clang"
  },
  "schemaVersion": "3.2.0",
  "updatedAt": "2020-06-28T11:25:37.874Z",
  "devdoc": {
    "methods": {
      "transferOwnership(address)": {
        "details": "Allows the current owner to transfer control of the contract to a newOwner.",
        "params": {
          "newOwner": "The address to transfer ownership to."
        }
      }
    }
  },
  "userdoc": {
    "methods": {}
  }
}