{
  "contractName": "Sample",
  "abi": [
    {
      "anonymous": false,
      "inputs": [
        {
          "indexed": false,
          "internalType": "address",
          "name": "from",
          "type": "address"
        },
        {
          "indexed": false,
          "internalType": "address",
          "name": "to",
          "type": "address"
        },
        {
          "indexed": false,
          "internalType": "uint256",
          "name": "amount",
          "type": "uint256"
        }
      ],
      "name": "Sent",
      "type": "event"
    },
    {
      "constant": true,
      "inputs": [
        {
          "internalType": "address",
          "name": "",
          "type": "address"
        }
      ],
      "name": "balances",
      "outputs": [
        {
          "internalType": "uint256",
          "name": "",
          "type": "uint256"
        }
      ],
      "payable": false,
      "stateMutability": "view",
      "type": "function"
    },
    {
      "constant": true,
      "inputs": [],
      "name": "getHarvesters",
      "outputs": [
        {
          "internalType": "address[16]",
          "name": "",
          "type": "address[16]"
        }
      ],
      "payable": false,
      "stateMutability": "view",
      "type": "function"
    },
    {
      "constant": false,
      "inputs": [
        {
          "internalType": "uint256",
          "name": "ressourceId",
          "type": "uint256"
        }
      ],
      "name": "harvest",
      "outputs": [
        {
          "internalType": "uint256",
          "name": "",
          "type": "uint256"
        }
      ],
      "payable": false,
      "stateMutability": "nonpayable",
      "type": "function"
    },
    {
      "constant": true,
      "inputs": [
        {
          "internalType": "uint256",
          "name": "",
          "type": "uint256"
        }
      ],
      "name": "harvesters",
      "outputs": [
        {
          "internalType": "address",
          "name": "",
          "type": "address"
        }
      ],
      "payable": false,
      "stateMutability": "view",
      "type": "function"
    },
    {
      "constant": true,
      "inputs": [
        {
          "internalType": "uint256",
          "name": "",
          "type": "uint256"
        }
      ],
      "name": "resourceStats",
      "outputs": [
        {
          "internalType": "uint256",
          "name": "quality",
          "type": "uint256"
        },
        {
          "internalType": "uint256",
          "name": "coldResistance",
          "type": "uint256"
        },
        {
          "internalType": "uint256",
          "name": "shockResistance",
          "type": "uint256"
        },
        {
          "internalType": "string",
          "name": "name",
          "type": "string"
        }
      ],
      "payable": false,
      "stateMutability": "view",
      "type": "function"
    },
    {
      "constant": false,
      "inputs": [
        {
          "internalType": "address",
          "name": "receiver",
          "type": "address"
        },
        {
          "internalType": "uint256",
          "name": "amount",
          "type": "uint256"
        }
      ],
      "name": "send",
      "outputs": [],
      "payable": false,
      "stateMutability": "nonpayable",
      "type": "function"
    }
  ],
  "bytecode": "0x608060405234801561001057600080fd5b5061071b806100206000396000f3fe608060405234801561001057600080fd5b50600436106100625760003560e01c806327e235e3146100675780632a7cbbe3146100bf578063b2dd53eb1461017b578063d0679d34146101c1578063ddc632621461020f578063ea02cea414610251575b600080fd5b6100a96004803603602081101561007d57600080fd5b81019080803573ffffffffffffffffffffffffffffffffffffffff1690602001909291905050506102bf565b6040518082815260200191505060405180910390f35b6100eb600480360360208110156100d557600080fd5b81019080803590602001909291905050506102d7565b6040518085815260200184815260200183815260200180602001828103825283818151815260200191508051906020019080838360005b8381101561013d578082015181840152602081019050610122565b50505050905090810190601f16801561016a5780820380516001836020036101000a031916815260200191505b509550505050505060405180910390f35b6101836103ac565b6040518082601060200280838360005b838110156101ae578082015181840152602081019050610193565b5050505090500191505060405180910390f35b61020d600480360360408110156101d757600080fd5b81019080803573ffffffffffffffffffffffffffffffffffffffff1690602001909291908035906020019092919050505061042d565b005b61023b6004803603602081101561022557600080fd5b810190808035906020019092919050505061061f565b6040518082815260200191505060405180910390f35b61027d6004803603602081101561026757600080fd5b8101908080359060200190929190505050610690565b604051808273ffffffffffffffffffffffffffffffffffffffff1673ffffffffffffffffffffffffffffffffffffffff16815260200191505060405180910390f35b60106020528060005260406000206000915090505481565b601181815481106102e457fe5b9060005260206000209060040201600091509050806000015490806001015490806002015490806003018054600181600116156101000203166002900480601f0160208091040260200160405190810160405280929190818152602001828054600181600116156101000203166002900480156103a25780601f10610377576101008083540402835291602001916103a2565b820191906000526020600020905b81548152906001019060200180831161038557829003601f168201915b5050505050905084565b6103b46106c3565b6000601080602002604051908101604052809291908260108015610423576020028201915b8160009054906101000a900473ffffffffffffffffffffffffffffffffffffffff1673ffffffffffffffffffffffffffffffffffffffff16815260200190600101908083116103d9575b5050505050905090565b601060003373ffffffffffffffffffffffffffffffffffffffff1673ffffffffffffffffffffffffffffffffffffffff168152602001908152602001600020548111156104e2576040517f08c379a00000000000000000000000000000000000000000000000000000000081526004018080602001828103825260158152602001807f496e73756666696369656e742062616c616e63652e000000000000000000000081525060200191505060405180910390fd5b80601060003373ffffffffffffffffffffffffffffffffffffffff1673ffffffffffffffffffffffffffffffffffffffff1681526020019081526020016000206000828254039250508190555080601060008473ffffffffffffffffffffffffffffffffffffffff1673ffffffffffffffffffffffffffffffffffffffff168152602001908152602001600020600082825401925050819055507f3990db2d31862302a685e8086b5755072a6e2b5b780af1ee81ece35ee3cd3345338383604051808473ffffffffffffffffffffffffffffffffffffffff1673ffffffffffffffffffffffffffffffffffffffff1681526020018373ffffffffffffffffffffffffffffffffffffffff1673ffffffffffffffffffffffffffffffffffffffff168152602001828152602001935050505060405180910390a15050565b60008082101580156106325750600f8211155b61063b57600080fd5b336000836010811061064957fe5b0160006101000a81548173ffffffffffffffffffffffffffffffffffffffff021916908373ffffffffffffffffffffffffffffffffffffffff160217905550819050919050565b6000816010811061069d57fe5b016000915054906101000a900473ffffffffffffffffffffffffffffffffffffffff1681565b60405180610200016040528060109060208202803883398082019150509050509056fea265627a7a723158200e246f132fad367c3b4462c3e08cedfc4eebfe5ba682d5f1edb7ea52d84dee8564736f6c63430005100032",
  "source": "// solium-disable linebreak-style\r\npragma solidity >=0.4.21 <0.6.0;\r\n\r\n\r\n\r\n\r\ncontract Harvest {\r\n\r\n//address of the user during the instance\r\naddress[16] public harvesters;\r\nmapping (address => uint) public balances;\r\n\r\nevent Sent(address from, address to, uint amount);\r\n\r\n\r\n\r\n//identify the resources\r\nfunction harvest(uint ressourceId) public returns (uint) {\r\n    require(ressourceId >= 0 && ressourceId <= 15);\r\n\r\n\r\n\r\n    harvesters[ressourceId] = msg.sender;\r\n\r\n    return ressourceId;\r\n\r\n    \r\n\r\n\r\n\r\n    \r\n\r\n}\r\n\r\n\r\n\r\n\r\n\r\n\r\n//getHarvester function in order to update all ressources status and place it inside the metamask wallet provider.\r\n\r\nfunction getHarvesters() public view returns (address[16] memory) {\r\n    return harvesters;\r\n\r\n    }\r\n\r\n}\r\n\r\n\r\n//add ERC 721 to contract\r\ncontract Sample is Harvest {\r\n\r\n\r\n    function send(address receiver, uint amount) public {\r\n        require(amount <= balances[msg.sender], \"Insufficient balance.\");\r\n        balances[msg.sender] -= amount;\r\n        balances[receiver] += amount;\r\n        emit Sent(msg.sender, receiver, amount);\r\n    }\r\n\r\n\r\n    struct ResourcesStats {\r\n    uint quality;\r\n    uint coldResistance;\r\n    uint shockResistance;\r\n    string name;\r\n}\r\nResourcesStats[] public resourceStats;\r\n}\r\n\r\n\r\n\r\n\r\n",
  "sourcePath": "C:/Users/Rahma John/Documents/dev/CraftingChain-/contracts/Harvest.sol",
  "compiler": {
    "name": "solc",
    "version": "0.5.16+commit.9c3226ce.Emscripten.clang"
  },
  "schemaVersion": "3.0.21",
  "updatedAt": "2020-04-01T21:23:12.834Z",
  "devdoc": {
    "methods": {}
  },
  "userdoc": {
    "methods": {}
  }
}