{
  "contractName": "TokenCreateAuction",
  "abi": [
    {
      "constant": true,
      "inputs": [],
      "name": "nonFungibleContract",
      "outputs": [
        {
          "internalType": "contract ERC721",
          "name": "",
          "type": "address"
        }
      ],
      "payable": false,
      "stateMutability": "view",
      "type": "function"
    },
    {
      "constant": false,
      "inputs": [
        {
          "internalType": "address",
          "name": "_nftAddress",
          "type": "address"
        }
      ],
      "name": "TokenAuction",
      "outputs": [],
      "payable": false,
      "stateMutability": "nonpayable",
      "type": "function"
    }
  ],
  "bytecode": "0x608060405234801561001057600080fd5b50610166806100206000396000f3fe608060405234801561001057600080fd5b50600436106100365760003560e01c8063286ddeaf1461003b578063dd1b7a0f1461007f575b600080fd5b61007d6004803603602081101561005157600080fd5b81019080803573ffffffffffffffffffffffffffffffffffffffff1690602001909291905050506100c9565b005b61008761010c565b604051808273ffffffffffffffffffffffffffffffffffffffff1673ffffffffffffffffffffffffffffffffffffffff16815260200191505060405180910390f35b806000806101000a81548173ffffffffffffffffffffffffffffffffffffffff021916908373ffffffffffffffffffffffffffffffffffffffff16021790555050565b6000809054906101000a900473ffffffffffffffffffffffffffffffffffffffff168156fea265627a7a72315820b5440fabdad3351db001caee9ae8822df6a2fc2dbb48cc8ecaaff66c5465bbaf64736f6c63430005100032",
  "source": "// solium-disable linebreak-style\npragma solidity >=0.4.24 <0.6.6;\n\n\nimport \"../node_modules/@openzeppelin/contracts/token/ERC721/ERC721.sol\";\n\n//import \"zeppelin-solidity/contracts/token/ERC721/ERC721.sol\";\n\ncontract TokenCreateAuction {\n  ERC721 public nonFungibleContract;\n\n  function TokenAuction(address _nftAddress) public {\n    nonFungibleContract = ERC721(_nftAddress);\n  }\n}",
  "sourcePath": "/home/rahma/dev/CraftingChain-/contracts/TokenCreateAuction.sol",
  "compiler": {
    "name": "solc",
    "version": "0.5.16+commit.9c3226ce.Emscripten.clang"
  },
  "schemaVersion": "3.2.0",
  "updatedAt": "2020-09-10T13:02:21.181Z",
  "devdoc": {
    "methods": {}
  },
  "userdoc": {
    "methods": {}
  }
}